{
  "_format": "hh-sol-artifact-1",
  "contractName": "HouseRent",
  "sourceName": "contracts/HouseRent.sol",
  "abi": [
    {
      "inputs": [
        {
          "internalType": "address",
          "name": "_usdtTokenAddress",
          "type": "address"
        }
      ],
      "stateMutability": "nonpayable",
      "type": "constructor"
    },
    {
      "anonymous": false,
      "inputs": [
        {
          "indexed": true,
          "internalType": "uint256",
          "name": "agreementId",
          "type": "uint256"
        },
        {
          "indexed": false,
          "internalType": "address",
          "name": "ownerAddress",
          "type": "address"
        },
        {
          "indexed": false,
          "internalType": "address",
          "name": "tenantAddress",
          "type": "address"
        },
        {
          "indexed": false,
          "internalType": "uint256",
          "name": "securityDeposit",
          "type": "uint256"
        },
        {
          "indexed": false,
          "internalType": "bool",
          "name": "isActive",
          "type": "bool"
        }
      ],
      "name": "AgreementCancelled",
      "type": "event"
    },
    {
      "anonymous": false,
      "inputs": [
        {
          "indexed": true,
          "internalType": "address",
          "name": "ownerAddress",
          "type": "address"
        },
        {
          "indexed": true,
          "internalType": "address",
          "name": "tenantAddress",
          "type": "address"
        },
        {
          "indexed": false,
          "internalType": "uint256",
          "name": "securityDeposit",
          "type": "uint256"
        },
        {
          "indexed": false,
          "internalType": "uint256",
          "name": "monthlyRent",
          "type": "uint256"
        },
        {
          "indexed": false,
          "internalType": "uint256",
          "name": "startTime",
          "type": "uint256"
        },
        {
          "indexed": false,
          "internalType": "uint256",
          "name": "endTime",
          "type": "uint256"
        },
        {
          "indexed": true,
          "internalType": "uint256",
          "name": "agreementId",
          "type": "uint256"
        },
        {
          "indexed": false,
          "internalType": "bool",
          "name": "isActive",
          "type": "bool"
        },
        {
          "indexed": false,
          "internalType": "bool",
          "name": "isSecurityDeposited",
          "type": "bool"
        }
      ],
      "name": "AgreementCreated",
      "type": "event"
    },
    {
      "anonymous": false,
      "inputs": [
        {
          "indexed": false,
          "internalType": "uint256",
          "name": "deposit",
          "type": "uint256"
        }
      ],
      "name": "LogDeposit",
      "type": "event"
    },
    {
      "anonymous": false,
      "inputs": [
        {
          "indexed": false,
          "internalType": "int256",
          "name": "price",
          "type": "int256"
        }
      ],
      "name": "LogPrice",
      "type": "event"
    },
    {
      "anonymous": false,
      "inputs": [
        {
          "indexed": true,
          "internalType": "address",
          "name": "ownerAddress",
          "type": "address"
        },
        {
          "indexed": true,
          "internalType": "address",
          "name": "tenantAddress",
          "type": "address"
        },
        {
          "indexed": false,
          "internalType": "uint256",
          "name": "monthlyRent",
          "type": "uint256"
        },
        {
          "indexed": false,
          "internalType": "uint256",
          "name": "datePaid",
          "type": "uint256"
        },
        {
          "indexed": true,
          "internalType": "uint256",
          "name": "agreementId",
          "type": "uint256"
        }
      ],
      "name": "RentPaid",
      "type": "event"
    },
    {
      "anonymous": false,
      "inputs": [
        {
          "indexed": true,
          "internalType": "address",
          "name": "ownerAddress",
          "type": "address"
        },
        {
          "indexed": true,
          "internalType": "address",
          "name": "tenantAddress",
          "type": "address"
        },
        {
          "indexed": false,
          "internalType": "uint256",
          "name": "securityDeposit",
          "type": "uint256"
        },
        {
          "indexed": false,
          "internalType": "uint256",
          "name": "datePaid",
          "type": "uint256"
        },
        {
          "indexed": true,
          "internalType": "uint256",
          "name": "agreementId",
          "type": "uint256"
        }
      ],
      "name": "SecuityDeposited",
      "type": "event"
    },
    {
      "anonymous": false,
      "inputs": [
        {
          "indexed": true,
          "internalType": "uint256",
          "name": "agreementId",
          "type": "uint256"
        },
        {
          "indexed": false,
          "internalType": "address",
          "name": "ownerAddress",
          "type": "address"
        },
        {
          "indexed": false,
          "internalType": "address",
          "name": "tenantAddress",
          "type": "address"
        },
        {
          "indexed": false,
          "internalType": "uint256",
          "name": "refundAmount",
          "type": "uint256"
        },
        {
          "indexed": false,
          "internalType": "bool",
          "name": "isActive",
          "type": "bool"
        }
      ],
      "name": "TenureCompleted",
      "type": "event"
    },
    {
      "inputs": [
        {
          "internalType": "uint256",
          "name": "agreementId",
          "type": "uint256"
        }
      ],
      "name": "cancelAgreement",
      "outputs": [],
      "stateMutability": "nonpayable",
      "type": "function"
    },
    {
      "inputs": [
        {
          "internalType": "address",
          "name": "ownerAddress",
          "type": "address"
        },
        {
          "internalType": "address",
          "name": "tenantAddress",
          "type": "address"
        },
        {
          "internalType": "uint256",
          "name": "securityDeposit",
          "type": "uint256"
        },
        {
          "internalType": "uint256",
          "name": "monthlyRent",
          "type": "uint256"
        },
        {
          "internalType": "uint256",
          "name": "tenureInMonths",
          "type": "uint256"
        }
      ],
      "name": "createAgreement",
      "outputs": [],
      "stateMutability": "payable",
      "type": "function"
    },
    {
      "inputs": [
        {
          "internalType": "uint256",
          "name": "agreementId",
          "type": "uint256"
        }
      ],
      "name": "depositSecurity",
      "outputs": [],
      "stateMutability": "payable",
      "type": "function"
    },
    {
      "inputs": [],
      "name": "getCurrentTimeStamp",
      "outputs": [
        {
          "internalType": "uint256",
          "name": "",
          "type": "uint256"
        }
      ],
      "stateMutability": "view",
      "type": "function"
    },
    {
      "inputs": [],
      "name": "getLatestPrice",
      "outputs": [
        {
          "internalType": "int256",
          "name": "",
          "type": "int256"
        }
      ],
      "stateMutability": "view",
      "type": "function"
    },
    {
      "inputs": [
        {
          "internalType": "address",
          "name": "user",
          "type": "address"
        }
      ],
      "name": "getReputation",
      "outputs": [
        {
          "internalType": "uint256",
          "name": "",
          "type": "uint256"
        }
      ],
      "stateMutability": "nonpayable",
      "type": "function"
    },
    {
      "inputs": [
        {
          "internalType": "address",
          "name": "user",
          "type": "address"
        }
      ],
      "name": "getReputationHistory",
      "outputs": [
        {
          "internalType": "uint256[]",
          "name": "",
          "type": "uint256[]"
        }
      ],
      "stateMutability": "view",
      "type": "function"
    },
    {
      "inputs": [
        {
          "internalType": "uint256",
          "name": "_agreementId",
          "type": "uint256"
        }
      ],
      "name": "getSecurityDepositInUSDT",
      "outputs": [
        {
          "internalType": "uint256",
          "name": "",
          "type": "uint256"
        }
      ],
      "stateMutability": "nonpayable",
      "type": "function"
    },
    {
      "inputs": [
        {
          "internalType": "address",
          "name": "user",
          "type": "address"
        }
      ],
      "name": "initializeReputation",
      "outputs": [],
      "stateMutability": "nonpayable",
      "type": "function"
    },
    {
      "inputs": [
        {
          "internalType": "uint256",
          "name": "agreementId",
          "type": "uint256"
        }
      ],
      "name": "payMonthlyRent",
      "outputs": [],
      "stateMutability": "payable",
      "type": "function"
    },
    {
      "inputs": [],
      "name": "usdtToken",
      "outputs": [
        {
          "internalType": "contract IERC20",
          "name": "",
          "type": "address"
        }
      ],
      "stateMutability": "view",
      "type": "function"
    }
  ],
  "bytecode": "0x608060405262278d00600355620151806004553480156200001e575f80fd5b506040516200261d3803806200261d83398181016040528101906200004491906200014a565b8060015f6101000a81548173ffffffffffffffffffffffffffffffffffffffff021916908373ffffffffffffffffffffffffffffffffffffffff160217905550734adc67696ba383f43dd60a9e78f2c97fbbfc7cb160025f6101000a81548173ffffffffffffffffffffffffffffffffffffffff021916908373ffffffffffffffffffffffffffffffffffffffff1602179055505f8081905550506200017a565b5f80fd5b5f73ffffffffffffffffffffffffffffffffffffffff82169050919050565b5f6200011482620000e9565b9050919050565b620001268162000108565b811462000131575f80fd5b50565b5f8151905062000144816200011b565b92915050565b5f60208284031215620001625762000161620000e5565b5b5f620001718482850162000134565b91505092915050565b61249580620001885f395ff3fe60806040526004361061009b575f3560e01c80637e5e219c116100635780637e5e219c146101835780638e15f473146101ad5780639aebccc8146101d75780639c89a0e2146101f3578063a98ad46c1461022f578063d5342883146102595761009b565b80631384f6cb1461009f57806322aeddfd146100db57806348bb0fe4146100f75780635686b54b146101335780637bb27c111461015b575b5f80fd5b3480156100aa575f80fd5b506100c560048036038101906100c09190611956565b610275565b6040516100d29190611990565b60405180910390f35b6100f560048036038101906100f09190611956565b61033b565b005b348015610102575f80fd5b5061011d60048036038101906101189190611a03565b61087f565b60405161012a9190611ae5565b60405180910390f35b34801561013e575f80fd5b5061015960048036038101906101549190611956565b610912565b005b348015610166575f80fd5b50610181600480360381019061017c9190611a03565b610c2e565b005b34801561018e575f80fd5b50610197610cdc565b6040516101a49190611990565b60405180910390f35b3480156101b8575f80fd5b506101c1610ce3565b6040516101ce9190611b1d565b60405180910390f35b6101f160048036038101906101ec9190611b36565b610d80565b005b3480156101fe575f80fd5b5061021960048036038101906102149190611a03565b6110b4565b6040516102269190611990565b60405180910390f35b34801561023a575f80fd5b5061024361116e565b6040516102509190611c08565b60405180910390f35b610273600480360381019061026e9190611956565b611193565b005b5f8060065f8481526020019081526020015f2090505f610293610ce3565b90507f2d898a939f08c13c49bc3a44cc82526e8166a06283f708e7aaae9d946cacd1bf816040516102c49190611b1d565b60405180910390a15f811361030e576040517f08c379a000000000000000000000000000000000000000000000000000000000815260040161030590611c7b565b60405180910390fd5b5f633b9aca008284600301546103249190611cc6565b61032e9190611d34565b9050809350505050919050565b5f60065f8381526020019081526020015f206001015f9054906101000a900473ffffffffffffffffffffffffffffffffffffffff1690505f60065f8481526020019081526020015f206002015f9054906101000a900473ffffffffffffffffffffffffffffffffffffffff1690505f60065f8581526020019081526020015f206003015490505f73ffffffffffffffffffffffffffffffffffffffff168373ffffffffffffffffffffffffffffffffffffffff160361042f576040517f08c379a000000000000000000000000000000000000000000000000000000000815260040161042690611dae565b60405180910390fd5b5f73ffffffffffffffffffffffffffffffffffffffff168273ffffffffffffffffffffffffffffffffffffffff160361049d576040517f08c379a000000000000000000000000000000000000000000000000000000000815260040161049490611e16565b60405180910390fd5b3373ffffffffffffffffffffffffffffffffffffffff168273ffffffffffffffffffffffffffffffffffffffff161461050b576040517f08c379a000000000000000000000000000000000000000000000000000000000815260040161050290611ea4565b60405180910390fd5b5f61051585610275565b90508060015f9054906101000a900473ffffffffffffffffffffffffffffffffffffffff1673ffffffffffffffffffffffffffffffffffffffff166370a08231336040518263ffffffff1660e01b81526004016105729190611ed1565b602060405180830381865afa15801561058d573d5f803e3d5ffd5b505050506040513d601f19601f820116820180604052508101906105b19190611efe565b10156105f2576040517f08c379a00000000000000000000000000000000000000000000000000000000081526004016105e990611f73565b60405180910390fd5b8060015f9054906101000a900473ffffffffffffffffffffffffffffffffffffffff1673ffffffffffffffffffffffffffffffffffffffff1663dd62ed3e33306040518363ffffffff1660e01b815260040161064f929190611f91565b602060405180830381865afa15801561066a573d5f803e3d5ffd5b505050506040513d601f19601f8201168201806040525081019061068e9190611efe565b10156106cf576040517f08c379a00000000000000000000000000000000000000000000000000000000081526004016106c690612002565b60405180910390fd5b7ff641ad64267ca71156d13749ad746155df3095d9afeb604fe3b53016ce5fc8ba816040516106fe9190611990565b60405180910390a160015f9054906101000a900473ffffffffffffffffffffffffffffffffffffffff1673ffffffffffffffffffffffffffffffffffffffff166323b872dd3330846040518463ffffffff1660e01b815260040161076493929190612020565b6020604051808303815f875af1158015610780573d5f803e3d5ffd5b505050506040513d601f19601f820116820180604052508101906107a4919061208a565b6107e3576040517f08c379a00000000000000000000000000000000000000000000000000000000081526004016107da906120ff565b60405180910390fd5b600160065f8781526020019081526020015f2060090160016101000a81548160ff021916908315150217905550848373ffffffffffffffffffffffffffffffffffffffff168573ffffffffffffffffffffffffffffffffffffffff167fe1fb5b5e62f99084a17ad1d9bea1e238e7634694073da91677db19b77aef4364854260405161087092919061211d565b60405180910390a45050505050565b606060055f8373ffffffffffffffffffffffffffffffffffffffff1673ffffffffffffffffffffffffffffffffffffffff1681526020019081526020015f2080548060200260200160405190810160405280929190818152602001828054801561090657602002820191905f5260205f20905b8154815260200190600101908083116108f2575b50505050509050919050565b5f60065f8381526020019081526020015f209050806009015f9054906101000a900460ff16610976576040517f08c379a000000000000000000000000000000000000000000000000000000000815260040161096d9061218e565b60405180910390fd5b5f60065f8481526020019081526020015f206009015f6101000a81548160ff0219169083151502179055508060090160019054906101000a900460ff1615610ba2575f6109c5825f0154610275565b905060015f9054906101000a900473ffffffffffffffffffffffffffffffffffffffff1673ffffffffffffffffffffffffffffffffffffffff166370a08231306040518263ffffffff1660e01b8152600401610a219190611ed1565b602060405180830381865afa158015610a3c573d5f803e3d5ffd5b505050506040513d601f19601f82011682018060405250810190610a609190611efe565b811115610aa2576040517f08c379a0000000000000000000000000000000000000000000000000000000008152600401610a9990611f73565b60405180910390fd5b60015f9054906101000a900473ffffffffffffffffffffffffffffffffffffffff1673ffffffffffffffffffffffffffffffffffffffff1663a9059cbb836001015f9054906101000a900473ffffffffffffffffffffffffffffffffffffffff16836040518363ffffffff1660e01b8152600401610b219291906121ac565b6020604051808303815f875af1158015610b3d573d5f803e3d5ffd5b505050506040513d601f19601f82011682018060405250810190610b61919061208a565b610ba0576040517f08c379a0000000000000000000000000000000000000000000000000000000008152600401610b97906120ff565b60405180910390fd5b505b817f3cd73338fb4b540080a5faa3d6e138370b9732c849c6be01ff430bd23e88d537826001015f9054906101000a900473ffffffffffffffffffffffffffffffffffffffff16836002015f9054906101000a900473ffffffffffffffffffffffffffffffffffffffff1684600301545f604051610c2294939291906121e2565b60405180910390a25050565b5f60055f8373ffffffffffffffffffffffffffffffffffffffff1673ffffffffffffffffffffffffffffffffffffffff1681526020019081526020015f208054905003610cd95760055f8273ffffffffffffffffffffffffffffffffffffffff1673ffffffffffffffffffffffffffffffffffffffff1681526020019081526020015f20610258908060018154018082558091505060019003905f5260205f20015f90919091909150555b50565b5f42905090565b5f8060025f9054906101000a900473ffffffffffffffffffffffffffffffffffffffff1673ffffffffffffffffffffffffffffffffffffffff1663feaf968c6040518163ffffffff1660e01b815260040160a060405180830381865afa158015610d4f573d5f803e3d5ffd5b505050506040513d601f19601f82011682018060405250810190610d73919061228e565b5050509150508091505090565b5f73ffffffffffffffffffffffffffffffffffffffff168573ffffffffffffffffffffffffffffffffffffffff1603610dee576040517f08c379a0000000000000000000000000000000000000000000000000000000008152600401610de590611dae565b60405180910390fd5b5f73ffffffffffffffffffffffffffffffffffffffff168473ffffffffffffffffffffffffffffffffffffffff1603610e5c576040517f08c379a0000000000000000000000000000000000000000000000000000000008152600401610e5390611e16565b60405180910390fd5b5f4290505f60035483610e6f9190611cc6565b42610e7a9190612305565b90506040518061016001604052805f5481526020018873ffffffffffffffffffffffffffffffffffffffff1681526020018773ffffffffffffffffffffffffffffffffffffffff1681526020018681526020018581526020018381526020018281526020018481526020018381526020016001151581526020015f151581525060065f805481526020019081526020015f205f820151815f01556020820151816001015f6101000a81548173ffffffffffffffffffffffffffffffffffffffff021916908373ffffffffffffffffffffffffffffffffffffffff1602179055506040820151816002015f6101000a81548173ffffffffffffffffffffffffffffffffffffffff021916908373ffffffffffffffffffffffffffffffffffffffff160217905550606082015181600301556080820151816004015560a0820151816005015560c0820151816006015560e082015181600701556101008201518160080155610120820151816009015f6101000a81548160ff0219169083151502179055506101408201518160090160016101000a81548160ff0219169083151502179055509050505f548673ffffffffffffffffffffffffffffffffffffffff168873ffffffffffffffffffffffffffffffffffffffff167fbc7849ee8c55eb3a1e73a6f433f9c3734e1c8f648e35453b0059322e9ca09e9e8888878960015f60405161108b96959493929190612338565b60405180910390a460015f808282546110a49190612305565b9250508190555050505050505050565b5f6110be82610c2e565b5f60055f8473ffffffffffffffffffffffffffffffffffffffff1673ffffffffffffffffffffffffffffffffffffffff1681526020019081526020015f2080549050905060055f8473ffffffffffffffffffffffffffffffffffffffff1673ffffffffffffffffffffffffffffffffffffffff1681526020019081526020015f2060018261114c9190612397565b8154811061115d5761115c6123ca565b5b905f5260205f200154915050919050565b60015f9054906101000a900473ffffffffffffffffffffffffffffffffffffffff1681565b5f60065f8381526020019081526020015f206001015f9054906101000a900473ffffffffffffffffffffffffffffffffffffffff1690505f60065f8481526020019081526020015f206002015f9054906101000a900473ffffffffffffffffffffffffffffffffffffffff1690505f60065f8581526020019081526020015f206004015490505f73ffffffffffffffffffffffffffffffffffffffff168373ffffffffffffffffffffffffffffffffffffffff1603611287576040517f08c379a000000000000000000000000000000000000000000000000000000000815260040161127e90611dae565b60405180910390fd5b5f73ffffffffffffffffffffffffffffffffffffffff168273ffffffffffffffffffffffffffffffffffffffff16036112f5576040517f08c379a00000000000000000000000000000000000000000000000000000000081526004016112ec90611e16565b60405180910390fd5b3373ffffffffffffffffffffffffffffffffffffffff168273ffffffffffffffffffffffffffffffffffffffff1614611363576040517f08c379a000000000000000000000000000000000000000000000000000000000815260040161135a90611ea4565b60405180910390fd5b8273ffffffffffffffffffffffffffffffffffffffff1660065f8681526020019081526020015f206001015f9054906101000a900473ffffffffffffffffffffffffffffffffffffffff1673ffffffffffffffffffffffffffffffffffffffff1614611404576040517f08c379a00000000000000000000000000000000000000000000000000000000081526004016113fb90612441565b60405180910390fd5b5f60065f8681526020019081526020015f2090505f8160070154600354836005015484600601546114359190612397565b61143f9190611d34565b6114499190612397565b90505f611478836002015f9054906101000a900473ffffffffffffffffffffffffffffffffffffffff166110b4565b905060045460056114899190611cc6565b600354836114979190611cc6565b84600501546114a69190612305565b6114b09190612305565b4211156115645760055f846002015f9054906101000a900473ffffffffffffffffffffffffffffffffffffffff1673ffffffffffffffffffffffffffffffffffffffff1673ffffffffffffffffffffffffffffffffffffffff1681526020019081526020015f20600a826103e86115279190612397565b6115319190611d34565b8261153c9190612397565b908060018154018082558091505060019003905f5260205f20015f909190919091505561160d565b60055f846002015f9054906101000a900473ffffffffffffffffffffffffffffffffffffffff1673ffffffffffffffffffffffffffffffffffffffff1673ffffffffffffffffffffffffffffffffffffffff1681526020019081526020015f206014826103e86115d49190612397565b6115de9190611d34565b826115e99190612305565b908060018154018082558091505060019003905f5260205f20015f90919091909150555b6001836007015461161e9190612397565b60065f8981526020019081526020015f20600701819055504260065f8981526020019081526020015f2060080181905550868573ffffffffffffffffffffffffffffffffffffffff168773ffffffffffffffffffffffffffffffffffffffff167f59db667862dc3f74da532c5d6916fc41791828e6e43b5f97686763aece47ed7e87426040516116af92919061211d565b60405180910390a45f60065f8981526020019081526020015f20600701540361191657867fc979c86c523a3cbdd8c7c16cc1c7f72cd55b1e39e104bbc148783018f0899dc2878760065f8c81526020019081526020015f20600301545f60405161171c94939291906121e2565b60405180910390a25f60065f8981526020019081526020015f206009015f6101000a81548160ff0219169083151502179055505f61175c845f0154610275565b905060015f9054906101000a900473ffffffffffffffffffffffffffffffffffffffff1673ffffffffffffffffffffffffffffffffffffffff166370a08231306040518263ffffffff1660e01b81526004016117b89190611ed1565b602060405180830381865afa1580156117d3573d5f803e3d5ffd5b505050506040513d601f19601f820116820180604052508101906117f79190611efe565b811115611839576040517f08c379a000000000000000000000000000000000000000000000000000000000815260040161183090611f73565b60405180910390fd5b60015f9054906101000a900473ffffffffffffffffffffffffffffffffffffffff1673ffffffffffffffffffffffffffffffffffffffff1663a9059cbb87836040518363ffffffff1660e01b81526004016118959291906121ac565b6020604051808303815f875af11580156118b1573d5f803e3d5ffd5b505050506040513d601f19601f820116820180604052508101906118d5919061208a565b611914576040517f08c379a000000000000000000000000000000000000000000000000000000000815260040161190b906120ff565b60405180910390fd5b505b50505050505050565b5f80fd5b5f819050919050565b61193581611923565b811461193f575f80fd5b50565b5f813590506119508161192c565b92915050565b5f6020828403121561196b5761196a61191f565b5b5f61197884828501611942565b91505092915050565b61198a81611923565b82525050565b5f6020820190506119a35f830184611981565b92915050565b5f73ffffffffffffffffffffffffffffffffffffffff82169050919050565b5f6119d2826119a9565b9050919050565b6119e2816119c8565b81146119ec575f80fd5b50565b5f813590506119fd816119d9565b92915050565b5f60208284031215611a1857611a1761191f565b5b5f611a25848285016119ef565b91505092915050565b5f81519050919050565b5f82825260208201905092915050565b5f819050602082019050919050565b611a6081611923565b82525050565b5f611a718383611a57565b60208301905092915050565b5f602082019050919050565b5f611a9382611a2e565b611a9d8185611a38565b9350611aa883611a48565b805f5b83811015611ad8578151611abf8882611a66565b9750611aca83611a7d565b925050600181019050611aab565b5085935050505092915050565b5f6020820190508181035f830152611afd8184611a89565b905092915050565b5f819050919050565b611b1781611b05565b82525050565b5f602082019050611b305f830184611b0e565b92915050565b5f805f805f60a08688031215611b4f57611b4e61191f565b5b5f611b5c888289016119ef565b9550506020611b6d888289016119ef565b9450506040611b7e88828901611942565b9350506060611b8f88828901611942565b9250506080611ba088828901611942565b9150509295509295909350565b5f819050919050565b5f611bd0611bcb611bc6846119a9565b611bad565b6119a9565b9050919050565b5f611be182611bb6565b9050919050565b5f611bf282611bd7565b9050919050565b611c0281611be8565b82525050565b5f602082019050611c1b5f830184611bf9565b92915050565b5f82825260208201905092915050565b7f496e76616c6964207072696365206461746100000000000000000000000000005f82015250565b5f611c65601283611c21565b9150611c7082611c31565b602082019050919050565b5f6020820190508181035f830152611c9281611c59565b9050919050565b7f4e487b71000000000000000000000000000000000000000000000000000000005f52601160045260245ffd5b5f611cd082611923565b9150611cdb83611923565b9250828202611ce981611923565b91508282048414831517611d0057611cff611c99565b5b5092915050565b7f4e487b71000000000000000000000000000000000000000000000000000000005f52601260045260245ffd5b5f611d3e82611923565b9150611d4983611923565b925082611d5957611d58611d07565b5b828204905092915050565b7f6f776e657241646472657373206d757374206265206e6f6e2d7a65726f0000005f82015250565b5f611d98601d83611c21565b9150611da382611d64565b602082019050919050565b5f6020820190508181035f830152611dc581611d8c565b9050919050565b7f74656e616e7441646472657373206d757374206265206e6f6e2d7a65726f00005f82015250565b5f611e00601e83611c21565b9150611e0b82611dcc565b602082019050919050565b5f6020820190508181035f830152611e2d81611df4565b9050919050565b7f53656375726974792073686f756c64206265206465706f7369746564206279205f8201527f74656e616e74206f6e6c79000000000000000000000000000000000000000000602082015250565b5f611e8e602b83611c21565b9150611e9982611e34565b604082019050919050565b5f6020820190508181035f830152611ebb81611e82565b9050919050565b611ecb816119c8565b82525050565b5f602082019050611ee45f830184611ec2565b92915050565b5f81519050611ef88161192c565b92915050565b5f60208284031215611f1357611f1261191f565b5b5f611f2084828501611eea565b91505092915050565b7f496e73756666696369656e742062616c616e63650000000000000000000000005f82015250565b5f611f5d601483611c21565b9150611f6882611f29565b602082019050919050565b5f6020820190508181035f830152611f8a81611f51565b9050919050565b5f604082019050611fa45f830185611ec2565b611fb16020830184611ec2565b9392505050565b7f496e73756666696369656e7420616c6c6f77616e6365000000000000000000005f82015250565b5f611fec601683611c21565b9150611ff782611fb8565b602082019050919050565b5f6020820190508181035f83015261201981611fe0565b9050919050565b5f6060820190506120335f830186611ec2565b6120406020830185611ec2565b61204d6040830184611981565b949350505050565b5f8115159050919050565b61206981612055565b8114612073575f80fd5b50565b5f8151905061208481612060565b92915050565b5f6020828403121561209f5761209e61191f565b5b5f6120ac84828501612076565b91505092915050565b7f5365637572697479206465706f736974207472616e73666572206661696c65645f82015250565b5f6120e9602083611c21565b91506120f4826120b5565b602082019050919050565b5f6020820190508181035f830152612116816120dd565b9050919050565b5f6040820190506121305f830185611981565b61213d6020830184611981565b9392505050565b7f5468652061677265656d656e7420616c72656164792070726f636573736564005f82015250565b5f612178601f83611c21565b915061218382612144565b602082019050919050565b5f6020820190508181035f8301526121a58161216c565b9050919050565b5f6040820190506121bf5f830185611ec2565b6121cc6020830184611981565b9392505050565b6121dc81612055565b82525050565b5f6080820190506121f55f830187611ec2565b6122026020830186611ec2565b61220f6040830185611981565b61221c60608301846121d3565b95945050505050565b5f69ffffffffffffffffffff82169050919050565b61224381612225565b811461224d575f80fd5b50565b5f8151905061225e8161223a565b92915050565b61226d81611b05565b8114612277575f80fd5b50565b5f8151905061228881612264565b92915050565b5f805f805f60a086880312156122a7576122a661191f565b5b5f6122b488828901612250565b95505060206122c58882890161227a565b94505060406122d688828901611eea565b93505060606122e788828901611eea565b92505060806122f888828901612250565b9150509295509295909350565b5f61230f82611923565b915061231a83611923565b925082820190508082111561233257612331611c99565b5b92915050565b5f60c08201905061234b5f830189611981565b6123586020830188611981565b6123656040830187611981565b6123726060830186611981565b61237f60808301856121d3565b61238c60a08301846121d3565b979650505050505050565b5f6123a182611923565b91506123ac83611923565b92508282039050818111156123c4576123c3611c99565b5b92915050565b7f4e487b71000000000000000000000000000000000000000000000000000000005f52603260045260245ffd5b7f506179696e6720746f2077726f6e67206f776e657200000000000000000000005f82015250565b5f61242b601583611c21565b9150612436826123f7565b602082019050919050565b5f6020820190508181035f8301526124588161241f565b905091905056fea26469706673582212204a775d08402e7504e46cc8e34925b1ad9badfb7609ac2bf2905cc6a1c7d1a9ec64736f6c63430008140033",
  "linkReferences": {},
  "deployedLinkReferences": {}
}