{
  "_format": "hh-sol-artifact-1",
  "contractName": "HouseRent",
  "sourceName": "contracts/HouseRent.sol",
  "abi": [
    {
      "inputs": [
        {
          "internalType": "address",
          "name": "_usdtTokenAddress",
          "type": "address"
        },
        {
          "internalType": "address",
          "name": "_priceFeedAddress",
          "type": "address"
        }
      ],
      "stateMutability": "nonpayable",
      "type": "constructor"
    },
    {
      "anonymous": false,
      "inputs": [
        {
          "indexed": true,
          "internalType": "uint256",
          "name": "agreementId",
          "type": "uint256"
        },
        {
          "indexed": false,
          "internalType": "address",
          "name": "ownerAddress",
          "type": "address"
        },
        {
          "indexed": false,
          "internalType": "address",
          "name": "tenantAddress",
          "type": "address"
        },
        {
          "indexed": false,
          "internalType": "uint256",
          "name": "securityDeposit",
          "type": "uint256"
        },
        {
          "indexed": false,
          "internalType": "bool",
          "name": "isActive",
          "type": "bool"
        }
      ],
      "name": "AgreementCancelled",
      "type": "event"
    },
    {
      "anonymous": false,
      "inputs": [
        {
          "indexed": true,
          "internalType": "address",
          "name": "ownerAddress",
          "type": "address"
        },
        {
          "indexed": true,
          "internalType": "address",
          "name": "tenantAddress",
          "type": "address"
        },
        {
          "indexed": false,
          "internalType": "uint256",
          "name": "securityDeposit",
          "type": "uint256"
        },
        {
          "indexed": false,
          "internalType": "uint256",
          "name": "monthlyRent",
          "type": "uint256"
        },
        {
          "indexed": false,
          "internalType": "uint256",
          "name": "startTime",
          "type": "uint256"
        },
        {
          "indexed": false,
          "internalType": "uint256",
          "name": "endTime",
          "type": "uint256"
        },
        {
          "indexed": true,
          "internalType": "uint256",
          "name": "agreementId",
          "type": "uint256"
        },
        {
          "indexed": false,
          "internalType": "bool",
          "name": "isActive",
          "type": "bool"
        },
        {
          "indexed": false,
          "internalType": "bool",
          "name": "isSecurityDeposited",
          "type": "bool"
        }
      ],
      "name": "AgreementCreated",
      "type": "event"
    },
    {
      "anonymous": false,
      "inputs": [
        {
          "indexed": true,
          "internalType": "address",
          "name": "ownerAddress",
          "type": "address"
        },
        {
          "indexed": true,
          "internalType": "address",
          "name": "tenantAddress",
          "type": "address"
        },
        {
          "indexed": false,
          "internalType": "uint256",
          "name": "monthlyRent",
          "type": "uint256"
        },
        {
          "indexed": false,
          "internalType": "uint256",
          "name": "datePaid",
          "type": "uint256"
        },
        {
          "indexed": true,
          "internalType": "uint256",
          "name": "agreementId",
          "type": "uint256"
        }
      ],
      "name": "RentPaid",
      "type": "event"
    },
    {
      "anonymous": false,
      "inputs": [
        {
          "indexed": true,
          "internalType": "address",
          "name": "ownerAddress",
          "type": "address"
        },
        {
          "indexed": true,
          "internalType": "address",
          "name": "tenantAddress",
          "type": "address"
        },
        {
          "indexed": false,
          "internalType": "uint256",
          "name": "securityDeposit",
          "type": "uint256"
        },
        {
          "indexed": false,
          "internalType": "uint256",
          "name": "datePaid",
          "type": "uint256"
        },
        {
          "indexed": true,
          "internalType": "uint256",
          "name": "agreementId",
          "type": "uint256"
        }
      ],
      "name": "SecuityDeposited",
      "type": "event"
    },
    {
      "anonymous": false,
      "inputs": [
        {
          "indexed": true,
          "internalType": "uint256",
          "name": "agreementId",
          "type": "uint256"
        },
        {
          "indexed": false,
          "internalType": "address",
          "name": "ownerAddress",
          "type": "address"
        },
        {
          "indexed": false,
          "internalType": "address",
          "name": "tenantAddress",
          "type": "address"
        },
        {
          "indexed": false,
          "internalType": "uint256",
          "name": "refundAmount",
          "type": "uint256"
        },
        {
          "indexed": false,
          "internalType": "bool",
          "name": "isActive",
          "type": "bool"
        }
      ],
      "name": "TenureCompleted",
      "type": "event"
    },
    {
      "inputs": [
        {
          "internalType": "uint256",
          "name": "agreementId",
          "type": "uint256"
        }
      ],
      "name": "cancelAgreement",
      "outputs": [],
      "stateMutability": "nonpayable",
      "type": "function"
    },
    {
      "inputs": [
        {
          "internalType": "address",
          "name": "ownerAddress",
          "type": "address"
        },
        {
          "internalType": "address",
          "name": "tenantAddress",
          "type": "address"
        },
        {
          "internalType": "uint256",
          "name": "securityDeposit",
          "type": "uint256"
        },
        {
          "internalType": "uint256",
          "name": "monthlyRent",
          "type": "uint256"
        },
        {
          "internalType": "uint256",
          "name": "tenureInMonths",
          "type": "uint256"
        }
      ],
      "name": "createAgreement",
      "outputs": [],
      "stateMutability": "payable",
      "type": "function"
    },
    {
      "inputs": [
        {
          "internalType": "address",
          "name": "ownerAddress",
          "type": "address"
        },
        {
          "internalType": "address",
          "name": "tenantAddress",
          "type": "address"
        },
        {
          "internalType": "uint256",
          "name": "securityDeposit",
          "type": "uint256"
        },
        {
          "internalType": "uint256",
          "name": "agreementId",
          "type": "uint256"
        }
      ],
      "name": "depositSecurity",
      "outputs": [],
      "stateMutability": "payable",
      "type": "function"
    },
    {
      "inputs": [],
      "name": "getCurrentTimeStamp",
      "outputs": [
        {
          "internalType": "uint256",
          "name": "",
          "type": "uint256"
        }
      ],
      "stateMutability": "view",
      "type": "function"
    },
    {
      "inputs": [],
      "name": "getLatestPrice",
      "outputs": [
        {
          "internalType": "int256",
          "name": "",
          "type": "int256"
        }
      ],
      "stateMutability": "view",
      "type": "function"
    },
    {
      "inputs": [
        {
          "internalType": "address",
          "name": "user",
          "type": "address"
        }
      ],
      "name": "getReputation",
      "outputs": [
        {
          "internalType": "uint256",
          "name": "",
          "type": "uint256"
        }
      ],
      "stateMutability": "nonpayable",
      "type": "function"
    },
    {
      "inputs": [
        {
          "internalType": "address",
          "name": "user",
          "type": "address"
        }
      ],
      "name": "getReputationHistory",
      "outputs": [
        {
          "internalType": "uint256[]",
          "name": "",
          "type": "uint256[]"
        }
      ],
      "stateMutability": "view",
      "type": "function"
    },
    {
      "inputs": [
        {
          "internalType": "uint256",
          "name": "_agreementId",
          "type": "uint256"
        }
      ],
      "name": "getSecurityDepositInUSDT",
      "outputs": [
        {
          "internalType": "uint256",
          "name": "",
          "type": "uint256"
        }
      ],
      "stateMutability": "view",
      "type": "function"
    },
    {
      "inputs": [
        {
          "internalType": "address",
          "name": "user",
          "type": "address"
        }
      ],
      "name": "initializeReputation",
      "outputs": [],
      "stateMutability": "nonpayable",
      "type": "function"
    },
    {
      "inputs": [
        {
          "internalType": "address",
          "name": "ownerAddress",
          "type": "address"
        },
        {
          "internalType": "address",
          "name": "tenantAddress",
          "type": "address"
        },
        {
          "internalType": "uint256",
          "name": "monthlyRent",
          "type": "uint256"
        },
        {
          "internalType": "uint256",
          "name": "agreementId",
          "type": "uint256"
        }
      ],
      "name": "payMonthlyRent",
      "outputs": [],
      "stateMutability": "payable",
      "type": "function"
    },
    {
      "inputs": [],
      "name": "usdtToken",
      "outputs": [
        {
          "internalType": "contract IERC20",
          "name": "",
          "type": "address"
        }
      ],
      "stateMutability": "view",
      "type": "function"
    }
  ],
  "bytecode": "0x608060405262278d00600355620151806004553480156200001e575f80fd5b50604051620020c6380380620020c6833981810160405281019062000044919062000137565b8160015f6101000a81548173ffffffffffffffffffffffffffffffffffffffff021916908373ffffffffffffffffffffffffffffffffffffffff1602179055508060025f6101000a81548173ffffffffffffffffffffffffffffffffffffffff021916908373ffffffffffffffffffffffffffffffffffffffff1602179055505f808190555050506200017c565b5f80fd5b5f73ffffffffffffffffffffffffffffffffffffffff82169050919050565b5f6200010182620000d6565b9050919050565b6200011381620000f5565b81146200011e575f80fd5b50565b5f81519050620001318162000108565b92915050565b5f806040838503121562000150576200014f620000d2565b5b5f6200015f8582860162000121565b9250506020620001728582860162000121565b9150509250929050565b611f3c806200018a5f395ff3fe60806040526004361061009b575f3560e01c80637e5e219c116100635780637e5e219c146101835780638e15f473146101ad57806390e657d4146101d75780639aebccc8146101f35780639c89a0e21461020f578063a98ad46c1461024b5761009b565b80631384f6cb1461009f57806341e84ae9146100db57806348bb0fe4146100f75780635686b54b146101335780637bb27c111461015b575b5f80fd5b3480156100aa575f80fd5b506100c560048036038101906100c091906114ae565b610275565b6040516100d291906114e8565b60405180910390f35b6100f560048036038101906100f0919061155b565b610304565b005b348015610102575f80fd5b5061011d600480360381019061011891906115bf565b6108fd565b60405161012a91906116a1565b60405180910390f35b34801561013e575f80fd5b50610159600480360381019061015491906114ae565b610990565b005b348015610166575f80fd5b50610181600480360381019061017c91906115bf565b610b77565b005b34801561018e575f80fd5b50610197610c25565b6040516101a491906114e8565b60405180910390f35b3480156101b8575f80fd5b506101c1610c2c565b6040516101ce91906116d9565b60405180910390f35b6101f160048036038101906101ec919061155b565b610cc9565b005b61020d600480360381019061020891906116f2565b610ff6565b005b34801561021a575f80fd5b50610235600480360381019061023091906115bf565b611398565b60405161024291906114e8565b60405180910390f35b348015610256575f80fd5b5061025f611452565b60405161026c91906117c4565b60405180910390f35b5f8060065f8481526020019081526020015f2090505f610293610c2c565b90505f81136102d7576040517f08c379a00000000000000000000000000000000000000000000000000000000081526004016102ce90611837565b60405180910390fd5b5f6305f5e1008284600301546102ed9190611882565b6102f791906118f0565b9050809350505050919050565b5f73ffffffffffffffffffffffffffffffffffffffff168473ffffffffffffffffffffffffffffffffffffffff1603610372576040517f08c379a00000000000000000000000000000000000000000000000000000000081526004016103699061196a565b60405180910390fd5b5f73ffffffffffffffffffffffffffffffffffffffff168373ffffffffffffffffffffffffffffffffffffffff16036103e0576040517f08c379a00000000000000000000000000000000000000000000000000000000081526004016103d7906119d2565b60405180910390fd5b3373ffffffffffffffffffffffffffffffffffffffff168373ffffffffffffffffffffffffffffffffffffffff161461044e576040517f08c379a000000000000000000000000000000000000000000000000000000000815260040161044590611a60565b60405180910390fd5b8373ffffffffffffffffffffffffffffffffffffffff1660065f8381526020019081526020015f206001015f9054906101000a900473ffffffffffffffffffffffffffffffffffffffff1673ffffffffffffffffffffffffffffffffffffffff16146104ef576040517f08c379a00000000000000000000000000000000000000000000000000000000081526004016104e690611ac8565b60405180910390fd5b5f60065f8381526020019081526020015f2090505f8160070154600354836005015484600601546105209190611ae6565b61052a91906118f0565b6105349190611ae6565b90505f610563836002015f9054906101000a900473ffffffffffffffffffffffffffffffffffffffff16611398565b905060045460056105749190611882565b600354836105829190611882565b84600501546105919190611b19565b61059b9190611b19565b42111561064f5760055f846002015f9054906101000a900473ffffffffffffffffffffffffffffffffffffffff1673ffffffffffffffffffffffffffffffffffffffff1673ffffffffffffffffffffffffffffffffffffffff1681526020019081526020015f20600a826103e86106129190611ae6565b61061c91906118f0565b826106279190611ae6565b908060018154018082558091505060019003905f5260205f20015f90919091909150556106f8565b60055f846002015f9054906101000a900473ffffffffffffffffffffffffffffffffffffffff1673ffffffffffffffffffffffffffffffffffffffff1673ffffffffffffffffffffffffffffffffffffffff1681526020019081526020015f206014826103e86106bf9190611ae6565b6106c991906118f0565b826106d49190611b19565b908060018154018082558091505060019003905f5260205f20015f90919091909150555b600183600701546107099190611ae6565b60065f8681526020019081526020015f20600701819055504260065f8681526020019081526020015f2060080181905550838673ffffffffffffffffffffffffffffffffffffffff168873ffffffffffffffffffffffffffffffffffffffff167f59db667862dc3f74da532c5d6916fc41791828e6e43b5f97686763aece47ed7e884260405161079a929190611b4c565b60405180910390a45f60065f8681526020019081526020015f2060070154036108f457837fc979c86c523a3cbdd8c7c16cc1c7f72cd55b1e39e104bbc148783018f0899dc2888860065f8981526020019081526020015f20600301545f6040516108079493929190611b9c565b60405180910390a25f60065f8681526020019081526020015f206009015f6101000a81548160ff02191690831515021790555060015f9054906101000a900473ffffffffffffffffffffffffffffffffffffffff1673ffffffffffffffffffffffffffffffffffffffff1663a9059cbb8761089560065f8981526020019081526020015f2060030154610275565b6040518363ffffffff1660e01b81526004016108b2929190611bdf565b6020604051808303815f875af11580156108ce573d5f803e3d5ffd5b505050506040513d601f19601f820116820180604052508101906108f29190611c30565b505b50505050505050565b606060055f8373ffffffffffffffffffffffffffffffffffffffff1673ffffffffffffffffffffffffffffffffffffffff1681526020019081526020015f2080548060200260200160405190810160405280929190818152602001828054801561098457602002820191905f5260205f20905b815481526020019060010190808311610970575b50505050509050919050565b5f60065f8381526020019081526020015f209050806009015f9054906101000a900460ff166109f4576040517f08c379a00000000000000000000000000000000000000000000000000000000081526004016109eb90611ca5565b60405180910390fd5b5f60065f8481526020019081526020015f206009015f6101000a81548160ff02191690831515021790555060015f9054906101000a900473ffffffffffffffffffffffffffffffffffffffff1673ffffffffffffffffffffffffffffffffffffffff1663a9059cbb826001015f9054906101000a900473ffffffffffffffffffffffffffffffffffffffff16610a8d8460030154610275565b6040518363ffffffff1660e01b8152600401610aaa929190611bdf565b6020604051808303815f875af1158015610ac6573d5f803e3d5ffd5b505050506040513d601f19601f82011682018060405250810190610aea9190611c30565b50817f3cd73338fb4b540080a5faa3d6e138370b9732c849c6be01ff430bd23e88d537826001015f9054906101000a900473ffffffffffffffffffffffffffffffffffffffff16836002015f9054906101000a900473ffffffffffffffffffffffffffffffffffffffff1684600301545f604051610b6b9493929190611b9c565b60405180910390a25050565b5f60055f8373ffffffffffffffffffffffffffffffffffffffff1673ffffffffffffffffffffffffffffffffffffffff1681526020019081526020015f208054905003610c225760055f8273ffffffffffffffffffffffffffffffffffffffff1673ffffffffffffffffffffffffffffffffffffffff1681526020019081526020015f20610258908060018154018082558091505060019003905f5260205f20015f90919091909150555b50565b5f42905090565b5f8060025f9054906101000a900473ffffffffffffffffffffffffffffffffffffffff1673ffffffffffffffffffffffffffffffffffffffff1663feaf968c6040518163ffffffff1660e01b815260040160a060405180830381865afa158015610c98573d5f803e3d5ffd5b505050506040513d601f19601f82011682018060405250810190610cbc9190611d40565b5050509150508091505090565b5f73ffffffffffffffffffffffffffffffffffffffff168473ffffffffffffffffffffffffffffffffffffffff1603610d37576040517f08c379a0000000000000000000000000000000000000000000000000000000008152600401610d2e9061196a565b60405180910390fd5b5f73ffffffffffffffffffffffffffffffffffffffff168373ffffffffffffffffffffffffffffffffffffffff1603610da5576040517f08c379a0000000000000000000000000000000000000000000000000000000008152600401610d9c906119d2565b60405180910390fd5b3373ffffffffffffffffffffffffffffffffffffffff168373ffffffffffffffffffffffffffffffffffffffff1614610e13576040517f08c379a0000000000000000000000000000000000000000000000000000000008152600401610e0a90611a60565b60405180910390fd5b8373ffffffffffffffffffffffffffffffffffffffff1660065f8381526020019081526020015f206001015f9054906101000a900473ffffffffffffffffffffffffffffffffffffffff1673ffffffffffffffffffffffffffffffffffffffff1614610eb4576040517f08c379a0000000000000000000000000000000000000000000000000000000008152600401610eab90611ac8565b60405180910390fd5b60015f9054906101000a900473ffffffffffffffffffffffffffffffffffffffff1673ffffffffffffffffffffffffffffffffffffffff166323b872dd3330610efc86610275565b6040518463ffffffff1660e01b8152600401610f1a93929190611db7565b6020604051808303815f875af1158015610f36573d5f803e3d5ffd5b505050506040513d601f19601f82011682018060405250810190610f5a9190611c30565b50600160065f8381526020019081526020015f2060090160016101000a81548160ff021916908315150217905550808373ffffffffffffffffffffffffffffffffffffffff168573ffffffffffffffffffffffffffffffffffffffff167fe1fb5b5e62f99084a17ad1d9bea1e238e7634694073da91677db19b77aef43648542604051610fe8929190611b4c565b60405180910390a450505050565b5f73ffffffffffffffffffffffffffffffffffffffff168573ffffffffffffffffffffffffffffffffffffffff1603611064576040517f08c379a000000000000000000000000000000000000000000000000000000000815260040161105b9061196a565b60405180910390fd5b5f73ffffffffffffffffffffffffffffffffffffffff168473ffffffffffffffffffffffffffffffffffffffff16036110d2576040517f08c379a00000000000000000000000000000000000000000000000000000000081526004016110c9906119d2565b60405180910390fd5b3373ffffffffffffffffffffffffffffffffffffffff168573ffffffffffffffffffffffffffffffffffffffff1603611140576040517f08c379a000000000000000000000000000000000000000000000000000000000815260040161113790611e5c565b60405180910390fd5b5f4290505f600354836111539190611882565b4261115e9190611b19565b90506040518061016001604052805f5481526020018873ffffffffffffffffffffffffffffffffffffffff1681526020018773ffffffffffffffffffffffffffffffffffffffff1681526020018681526020018581526020018381526020018281526020018481526020018381526020016001151581526020015f151581525060065f805481526020019081526020015f205f820151815f01556020820151816001015f6101000a81548173ffffffffffffffffffffffffffffffffffffffff021916908373ffffffffffffffffffffffffffffffffffffffff1602179055506040820151816002015f6101000a81548173ffffffffffffffffffffffffffffffffffffffff021916908373ffffffffffffffffffffffffffffffffffffffff160217905550606082015181600301556080820151816004015560a0820151816005015560c0820151816006015560e082015181600701556101008201518160080155610120820151816009015f6101000a81548160ff0219169083151502179055506101408201518160090160016101000a81548160ff0219169083151502179055509050505f548673ffffffffffffffffffffffffffffffffffffffff168873ffffffffffffffffffffffffffffffffffffffff167fbc7849ee8c55eb3a1e73a6f433f9c3734e1c8f648e35453b0059322e9ca09e9e8888878960015f60405161136f96959493929190611e7a565b60405180910390a460015f808282546113889190611b19565b9250508190555050505050505050565b5f6113a282610b77565b5f60055f8473ffffffffffffffffffffffffffffffffffffffff1673ffffffffffffffffffffffffffffffffffffffff1681526020019081526020015f2080549050905060055f8473ffffffffffffffffffffffffffffffffffffffff1673ffffffffffffffffffffffffffffffffffffffff1681526020019081526020015f206001826114309190611ae6565b8154811061144157611440611ed9565b5b905f5260205f200154915050919050565b60015f9054906101000a900473ffffffffffffffffffffffffffffffffffffffff1681565b5f80fd5b5f819050919050565b61148d8161147b565b8114611497575f80fd5b50565b5f813590506114a881611484565b92915050565b5f602082840312156114c3576114c2611477565b5b5f6114d08482850161149a565b91505092915050565b6114e28161147b565b82525050565b5f6020820190506114fb5f8301846114d9565b92915050565b5f73ffffffffffffffffffffffffffffffffffffffff82169050919050565b5f61152a82611501565b9050919050565b61153a81611520565b8114611544575f80fd5b50565b5f8135905061155581611531565b92915050565b5f805f806080858703121561157357611572611477565b5b5f61158087828801611547565b945050602061159187828801611547565b93505060406115a28782880161149a565b92505060606115b38782880161149a565b91505092959194509250565b5f602082840312156115d4576115d3611477565b5b5f6115e184828501611547565b91505092915050565b5f81519050919050565b5f82825260208201905092915050565b5f819050602082019050919050565b61161c8161147b565b82525050565b5f61162d8383611613565b60208301905092915050565b5f602082019050919050565b5f61164f826115ea565b61165981856115f4565b935061166483611604565b805f5b8381101561169457815161167b8882611622565b975061168683611639565b925050600181019050611667565b5085935050505092915050565b5f6020820190508181035f8301526116b98184611645565b905092915050565b5f819050919050565b6116d3816116c1565b82525050565b5f6020820190506116ec5f8301846116ca565b92915050565b5f805f805f60a0868803121561170b5761170a611477565b5b5f61171888828901611547565b955050602061172988828901611547565b945050604061173a8882890161149a565b935050606061174b8882890161149a565b925050608061175c8882890161149a565b9150509295509295909350565b5f819050919050565b5f61178c61178761178284611501565b611769565b611501565b9050919050565b5f61179d82611772565b9050919050565b5f6117ae82611793565b9050919050565b6117be816117a4565b82525050565b5f6020820190506117d75f8301846117b5565b92915050565b5f82825260208201905092915050565b7f496e76616c6964207072696365206461746100000000000000000000000000005f82015250565b5f6118216012836117dd565b915061182c826117ed565b602082019050919050565b5f6020820190508181035f83015261184e81611815565b9050919050565b7f4e487b71000000000000000000000000000000000000000000000000000000005f52601160045260245ffd5b5f61188c8261147b565b91506118978361147b565b92508282026118a58161147b565b915082820484148315176118bc576118bb611855565b5b5092915050565b7f4e487b71000000000000000000000000000000000000000000000000000000005f52601260045260245ffd5b5f6118fa8261147b565b91506119058361147b565b925082611915576119146118c3565b5b828204905092915050565b7f6f776e657241646472657373206d757374206265206e6f6e2d7a65726f0000005f82015250565b5f611954601d836117dd565b915061195f82611920565b602082019050919050565b5f6020820190508181035f83015261198181611948565b9050919050565b7f74656e616e7441646472657373206d757374206265206e6f6e2d7a65726f00005f82015250565b5f6119bc601e836117dd565b91506119c782611988565b602082019050919050565b5f6020820190508181035f8301526119e9816119b0565b9050919050565b7f53656375726974792073686f756c64206265206465706f7369746564206279205f8201527f74656e616e74206f6e6c79000000000000000000000000000000000000000000602082015250565b5f611a4a602b836117dd565b9150611a55826119f0565b604082019050919050565b5f6020820190508181035f830152611a7781611a3e565b9050919050565b7f506179696e6720746f2077726f6e67206f776e657200000000000000000000005f82015250565b5f611ab26015836117dd565b9150611abd82611a7e565b602082019050919050565b5f6020820190508181035f830152611adf81611aa6565b9050919050565b5f611af08261147b565b9150611afb8361147b565b9250828203905081811115611b1357611b12611855565b5b92915050565b5f611b238261147b565b9150611b2e8361147b565b9250828201905080821115611b4657611b45611855565b5b92915050565b5f604082019050611b5f5f8301856114d9565b611b6c60208301846114d9565b9392505050565b611b7c81611520565b82525050565b5f8115159050919050565b611b9681611b82565b82525050565b5f608082019050611baf5f830187611b73565b611bbc6020830186611b73565b611bc960408301856114d9565b611bd66060830184611b8d565b95945050505050565b5f604082019050611bf25f830185611b73565b611bff60208301846114d9565b9392505050565b611c0f81611b82565b8114611c19575f80fd5b50565b5f81519050611c2a81611c06565b92915050565b5f60208284031215611c4557611c44611477565b5b5f611c5284828501611c1c565b91505092915050565b7f5468652061677265656d656e7420616c72656164792070726f636573736564005f82015250565b5f611c8f601f836117dd565b9150611c9a82611c5b565b602082019050919050565b5f6020820190508181035f830152611cbc81611c83565b9050919050565b5f69ffffffffffffffffffff82169050919050565b611ce181611cc3565b8114611ceb575f80fd5b50565b5f81519050611cfc81611cd8565b92915050565b611d0b816116c1565b8114611d15575f80fd5b50565b5f81519050611d2681611d02565b92915050565b5f81519050611d3a81611484565b92915050565b5f805f805f60a08688031215611d5957611d58611477565b5b5f611d6688828901611cee565b9550506020611d7788828901611d18565b9450506040611d8888828901611d2c565b9350506060611d9988828901611d2c565b9250506080611daa88828901611cee565b9150509295509295909350565b5f606082019050611dca5f830186611b73565b611dd76020830185611b73565b611de460408301846114d9565b949350505050565b7f41677265656d726e742073686f756c64206265206372656174656420627920745f8201527f6865206f776e6572206f6e6c7900000000000000000000000000000000000000602082015250565b5f611e46602d836117dd565b9150611e5182611dec565b604082019050919050565b5f6020820190508181035f830152611e7381611e3a565b9050919050565b5f60c082019050611e8d5f8301896114d9565b611e9a60208301886114d9565b611ea760408301876114d9565b611eb460608301866114d9565b611ec16080830185611b8d565b611ece60a0830184611b8d565b979650505050505050565b7f4e487b71000000000000000000000000000000000000000000000000000000005f52603260045260245ffdfea2646970667358221220f9e73f37c8a4c9e05f9b59166a3192dbcc52ded4b241f03443c323dc0055b53f64736f6c63430008140033",
  "linkReferences": {},
  "deployedLinkReferences": {}
}