{
  "_format": "hh-sol-artifact-1",
  "contractName": "HouseRent",
  "sourceName": "contracts/HouseRent.sol",
  "abi": [
    {
      "inputs": [
        {
          "internalType": "address",
          "name": "_usdtTokenAddress",
          "type": "address"
        },
        {
          "internalType": "address",
          "name": "_priceFeedAddress",
          "type": "address"
        }
      ],
      "stateMutability": "nonpayable",
      "type": "constructor"
    },
    {
      "anonymous": false,
      "inputs": [
        {
          "indexed": true,
          "internalType": "uint256",
          "name": "agreementId",
          "type": "uint256"
        },
        {
          "indexed": false,
          "internalType": "address",
          "name": "ownerAddress",
          "type": "address"
        },
        {
          "indexed": false,
          "internalType": "address",
          "name": "tenantAddress",
          "type": "address"
        },
        {
          "indexed": false,
          "internalType": "uint256",
          "name": "securityDeposit",
          "type": "uint256"
        },
        {
          "indexed": false,
          "internalType": "bool",
          "name": "isActive",
          "type": "bool"
        }
      ],
      "name": "AgreementCancelled",
      "type": "event"
    },
    {
      "anonymous": false,
      "inputs": [
        {
          "indexed": true,
          "internalType": "address",
          "name": "ownerAddress",
          "type": "address"
        },
        {
          "indexed": true,
          "internalType": "address",
          "name": "tenantAddress",
          "type": "address"
        },
        {
          "indexed": false,
          "internalType": "uint256",
          "name": "securityDeposit",
          "type": "uint256"
        },
        {
          "indexed": false,
          "internalType": "uint256",
          "name": "monthlyRent",
          "type": "uint256"
        },
        {
          "indexed": false,
          "internalType": "uint256",
          "name": "startTime",
          "type": "uint256"
        },
        {
          "indexed": false,
          "internalType": "uint256",
          "name": "endTime",
          "type": "uint256"
        },
        {
          "indexed": true,
          "internalType": "uint256",
          "name": "agreementId",
          "type": "uint256"
        },
        {
          "indexed": false,
          "internalType": "bool",
          "name": "isActive",
          "type": "bool"
        },
        {
          "indexed": false,
          "internalType": "bool",
          "name": "isSecurityDeposited",
          "type": "bool"
        }
      ],
      "name": "AgreementCreated",
      "type": "event"
    },
    {
      "anonymous": false,
      "inputs": [
        {
          "indexed": true,
          "internalType": "address",
          "name": "ownerAddress",
          "type": "address"
        },
        {
          "indexed": true,
          "internalType": "address",
          "name": "tenantAddress",
          "type": "address"
        },
        {
          "indexed": false,
          "internalType": "uint256",
          "name": "monthlyRent",
          "type": "uint256"
        },
        {
          "indexed": false,
          "internalType": "uint256",
          "name": "datePaid",
          "type": "uint256"
        },
        {
          "indexed": true,
          "internalType": "uint256",
          "name": "agreementId",
          "type": "uint256"
        }
      ],
      "name": "RentPaid",
      "type": "event"
    },
    {
      "anonymous": false,
      "inputs": [
        {
          "indexed": true,
          "internalType": "address",
          "name": "ownerAddress",
          "type": "address"
        },
        {
          "indexed": true,
          "internalType": "address",
          "name": "tenantAddress",
          "type": "address"
        },
        {
          "indexed": false,
          "internalType": "uint256",
          "name": "securityDeposit",
          "type": "uint256"
        },
        {
          "indexed": false,
          "internalType": "uint256",
          "name": "datePaid",
          "type": "uint256"
        },
        {
          "indexed": true,
          "internalType": "uint256",
          "name": "agreementId",
          "type": "uint256"
        }
      ],
      "name": "SecuityDeposited",
      "type": "event"
    },
    {
      "anonymous": false,
      "inputs": [
        {
          "indexed": true,
          "internalType": "uint256",
          "name": "agreementId",
          "type": "uint256"
        },
        {
          "indexed": false,
          "internalType": "address",
          "name": "ownerAddress",
          "type": "address"
        },
        {
          "indexed": false,
          "internalType": "address",
          "name": "tenantAddress",
          "type": "address"
        },
        {
          "indexed": false,
          "internalType": "uint256",
          "name": "refundAmount",
          "type": "uint256"
        },
        {
          "indexed": false,
          "internalType": "bool",
          "name": "isActive",
          "type": "bool"
        }
      ],
      "name": "TenureCompleted",
      "type": "event"
    },
    {
      "inputs": [
        {
          "internalType": "uint256",
          "name": "agreementId",
          "type": "uint256"
        }
      ],
      "name": "cancelAgreement",
      "outputs": [],
      "stateMutability": "nonpayable",
      "type": "function"
    },
    {
      "inputs": [
        {
          "internalType": "address",
          "name": "ownerAddress",
          "type": "address"
        },
        {
          "internalType": "address",
          "name": "tenantAddress",
          "type": "address"
        },
        {
          "internalType": "uint256",
          "name": "securityDeposit",
          "type": "uint256"
        },
        {
          "internalType": "uint256",
          "name": "monthlyRent",
          "type": "uint256"
        },
        {
          "internalType": "uint256",
          "name": "tenureInMonths",
          "type": "uint256"
        }
      ],
      "name": "createAgreement",
      "outputs": [],
      "stateMutability": "payable",
      "type": "function"
    },
    {
      "inputs": [
        {
          "internalType": "address",
          "name": "ownerAddress",
          "type": "address"
        },
        {
          "internalType": "address",
          "name": "tenantAddress",
          "type": "address"
        },
        {
          "internalType": "uint256",
          "name": "securityDeposit",
          "type": "uint256"
        },
        {
          "internalType": "uint256",
          "name": "agreementId",
          "type": "uint256"
        }
      ],
      "name": "depositSecurity",
      "outputs": [],
      "stateMutability": "payable",
      "type": "function"
    },
    {
      "inputs": [],
      "name": "getCurrentTimeStamp",
      "outputs": [
        {
          "internalType": "uint256",
          "name": "",
          "type": "uint256"
        }
      ],
      "stateMutability": "view",
      "type": "function"
    },
    {
      "inputs": [],
      "name": "getLatestPrice",
      "outputs": [
        {
          "internalType": "int256",
          "name": "",
          "type": "int256"
        }
      ],
      "stateMutability": "view",
      "type": "function"
    },
    {
      "inputs": [
        {
          "internalType": "address",
          "name": "user",
          "type": "address"
        }
      ],
      "name": "getReputation",
      "outputs": [
        {
          "internalType": "uint256",
          "name": "",
          "type": "uint256"
        }
      ],
      "stateMutability": "nonpayable",
      "type": "function"
    },
    {
      "inputs": [
        {
          "internalType": "address",
          "name": "user",
          "type": "address"
        }
      ],
      "name": "getReputationHistory",
      "outputs": [
        {
          "internalType": "uint256[]",
          "name": "",
          "type": "uint256[]"
        }
      ],
      "stateMutability": "view",
      "type": "function"
    },
    {
      "inputs": [
        {
          "internalType": "uint256",
          "name": "_agreementId",
          "type": "uint256"
        }
      ],
      "name": "getSecurityDepositInUSDT",
      "outputs": [
        {
          "internalType": "uint256",
          "name": "",
          "type": "uint256"
        }
      ],
      "stateMutability": "view",
      "type": "function"
    },
    {
      "inputs": [
        {
          "internalType": "address",
          "name": "user",
          "type": "address"
        }
      ],
      "name": "initializeReputation",
      "outputs": [],
      "stateMutability": "nonpayable",
      "type": "function"
    },
    {
      "inputs": [
        {
          "internalType": "address",
          "name": "ownerAddress",
          "type": "address"
        },
        {
          "internalType": "address",
          "name": "tenantAddress",
          "type": "address"
        },
        {
          "internalType": "uint256",
          "name": "monthlyRent",
          "type": "uint256"
        },
        {
          "internalType": "uint256",
          "name": "agreementId",
          "type": "uint256"
        }
      ],
      "name": "payMonthlyRent",
      "outputs": [],
      "stateMutability": "payable",
      "type": "function"
    },
    {
      "inputs": [],
      "name": "usdtToken",
      "outputs": [
        {
          "internalType": "contract IERC20",
          "name": "",
          "type": "address"
        }
      ],
      "stateMutability": "view",
      "type": "function"
    }
  ],
  "bytecode": "0x608060405262278d00600355620151806004553480156200001e575f80fd5b5060405162001fca38038062001fca833981810160405281019062000044919062000137565b8160015f6101000a81548173ffffffffffffffffffffffffffffffffffffffff021916908373ffffffffffffffffffffffffffffffffffffffff1602179055508060025f6101000a81548173ffffffffffffffffffffffffffffffffffffffff021916908373ffffffffffffffffffffffffffffffffffffffff1602179055505f808190555050506200017c565b5f80fd5b5f73ffffffffffffffffffffffffffffffffffffffff82169050919050565b5f6200010182620000d6565b9050919050565b6200011381620000f5565b81146200011e575f80fd5b50565b5f81519050620001318162000108565b92915050565b5f806040838503121562000150576200014f620000d2565b5b5f6200015f8582860162000121565b9250506020620001728582860162000121565b9150509250929050565b611e40806200018a5f395ff3fe60806040526004361061009b575f3560e01c80637e5e219c116100635780637e5e219c146101835780638e15f473146101ad57806390e657d4146101d75780639aebccc8146101f35780639c89a0e21461020f578063a98ad46c1461024b5761009b565b80631384f6cb1461009f57806341e84ae9146100db57806348bb0fe4146100f75780635686b54b146101335780637bb27c111461015b575b5f80fd5b3480156100aa575f80fd5b506100c560048036038101906100c09190611440565b610275565b6040516100d2919061147a565b60405180910390f35b6100f560048036038101906100f091906114ed565b610304565b005b348015610102575f80fd5b5061011d60048036038101906101189190611551565b6108fd565b60405161012a9190611633565b60405180910390f35b34801561013e575f80fd5b5061015960048036038101906101549190611440565b610990565b005b348015610166575f80fd5b50610181600480360381019061017c9190611551565b610b77565b005b34801561018e575f80fd5b50610197610c25565b6040516101a4919061147a565b60405180910390f35b3480156101b8575f80fd5b506101c1610c2c565b6040516101ce919061166b565b60405180910390f35b6101f160048036038101906101ec91906114ed565b610cc9565b005b61020d60048036038101906102089190611684565b610ff6565b005b34801561021a575f80fd5b5061023560048036038101906102309190611551565b61132a565b604051610242919061147a565b60405180910390f35b348015610256575f80fd5b5061025f6113e4565b60405161026c9190611756565b60405180910390f35b5f8060065f8481526020019081526020015f2090505f610293610c2c565b90505f81136102d7576040517f08c379a00000000000000000000000000000000000000000000000000000000081526004016102ce906117c9565b60405180910390fd5b5f6305f5e1008284600301546102ed9190611814565b6102f79190611882565b9050809350505050919050565b5f73ffffffffffffffffffffffffffffffffffffffff168473ffffffffffffffffffffffffffffffffffffffff1603610372576040517f08c379a0000000000000000000000000000000000000000000000000000000008152600401610369906118fc565b60405180910390fd5b5f73ffffffffffffffffffffffffffffffffffffffff168373ffffffffffffffffffffffffffffffffffffffff16036103e0576040517f08c379a00000000000000000000000000000000000000000000000000000000081526004016103d790611964565b60405180910390fd5b3373ffffffffffffffffffffffffffffffffffffffff168373ffffffffffffffffffffffffffffffffffffffff161461044e576040517f08c379a0000000000000000000000000000000000000000000000000000000008152600401610445906119f2565b60405180910390fd5b8373ffffffffffffffffffffffffffffffffffffffff1660065f8381526020019081526020015f206001015f9054906101000a900473ffffffffffffffffffffffffffffffffffffffff1673ffffffffffffffffffffffffffffffffffffffff16146104ef576040517f08c379a00000000000000000000000000000000000000000000000000000000081526004016104e690611a5a565b60405180910390fd5b5f60065f8381526020019081526020015f2090505f8160070154600354836005015484600601546105209190611a78565b61052a9190611882565b6105349190611a78565b90505f610563836002015f9054906101000a900473ffffffffffffffffffffffffffffffffffffffff1661132a565b905060045460056105749190611814565b600354836105829190611814565b84600501546105919190611aab565b61059b9190611aab565b42111561064f5760055f846002015f9054906101000a900473ffffffffffffffffffffffffffffffffffffffff1673ffffffffffffffffffffffffffffffffffffffff1673ffffffffffffffffffffffffffffffffffffffff1681526020019081526020015f20600a826103e86106129190611a78565b61061c9190611882565b826106279190611a78565b908060018154018082558091505060019003905f5260205f20015f90919091909150556106f8565b60055f846002015f9054906101000a900473ffffffffffffffffffffffffffffffffffffffff1673ffffffffffffffffffffffffffffffffffffffff1673ffffffffffffffffffffffffffffffffffffffff1681526020019081526020015f206014826103e86106bf9190611a78565b6106c99190611882565b826106d49190611aab565b908060018154018082558091505060019003905f5260205f20015f90919091909150555b600183600701546107099190611a78565b60065f8681526020019081526020015f20600701819055504260065f8681526020019081526020015f2060080181905550838673ffffffffffffffffffffffffffffffffffffffff168873ffffffffffffffffffffffffffffffffffffffff167f59db667862dc3f74da532c5d6916fc41791828e6e43b5f97686763aece47ed7e884260405161079a929190611ade565b60405180910390a45f60065f8681526020019081526020015f2060070154036108f457837fc979c86c523a3cbdd8c7c16cc1c7f72cd55b1e39e104bbc148783018f0899dc2888860065f8981526020019081526020015f20600301545f6040516108079493929190611b2e565b60405180910390a25f60065f8681526020019081526020015f206009015f6101000a81548160ff02191690831515021790555060015f9054906101000a900473ffffffffffffffffffffffffffffffffffffffff1673ffffffffffffffffffffffffffffffffffffffff1663a9059cbb8761089560065f8981526020019081526020015f2060030154610275565b6040518363ffffffff1660e01b81526004016108b2929190611b71565b6020604051808303815f875af11580156108ce573d5f803e3d5ffd5b505050506040513d601f19601f820116820180604052508101906108f29190611bc2565b505b50505050505050565b606060055f8373ffffffffffffffffffffffffffffffffffffffff1673ffffffffffffffffffffffffffffffffffffffff1681526020019081526020015f2080548060200260200160405190810160405280929190818152602001828054801561098457602002820191905f5260205f20905b815481526020019060010190808311610970575b50505050509050919050565b5f60065f8381526020019081526020015f209050806009015f9054906101000a900460ff166109f4576040517f08c379a00000000000000000000000000000000000000000000000000000000081526004016109eb90611c37565b60405180910390fd5b5f60065f8481526020019081526020015f206009015f6101000a81548160ff02191690831515021790555060015f9054906101000a900473ffffffffffffffffffffffffffffffffffffffff1673ffffffffffffffffffffffffffffffffffffffff1663a9059cbb826001015f9054906101000a900473ffffffffffffffffffffffffffffffffffffffff16610a8d8460030154610275565b6040518363ffffffff1660e01b8152600401610aaa929190611b71565b6020604051808303815f875af1158015610ac6573d5f803e3d5ffd5b505050506040513d601f19601f82011682018060405250810190610aea9190611bc2565b50817f3cd73338fb4b540080a5faa3d6e138370b9732c849c6be01ff430bd23e88d537826001015f9054906101000a900473ffffffffffffffffffffffffffffffffffffffff16836002015f9054906101000a900473ffffffffffffffffffffffffffffffffffffffff1684600301545f604051610b6b9493929190611b2e565b60405180910390a25050565b5f60055f8373ffffffffffffffffffffffffffffffffffffffff1673ffffffffffffffffffffffffffffffffffffffff1681526020019081526020015f208054905003610c225760055f8273ffffffffffffffffffffffffffffffffffffffff1673ffffffffffffffffffffffffffffffffffffffff1681526020019081526020015f20610258908060018154018082558091505060019003905f5260205f20015f90919091909150555b50565b5f42905090565b5f8060025f9054906101000a900473ffffffffffffffffffffffffffffffffffffffff1673ffffffffffffffffffffffffffffffffffffffff1663feaf968c6040518163ffffffff1660e01b815260040160a060405180830381865afa158015610c98573d5f803e3d5ffd5b505050506040513d601f19601f82011682018060405250810190610cbc9190611cd2565b5050509150508091505090565b5f73ffffffffffffffffffffffffffffffffffffffff168473ffffffffffffffffffffffffffffffffffffffff1603610d37576040517f08c379a0000000000000000000000000000000000000000000000000000000008152600401610d2e906118fc565b60405180910390fd5b5f73ffffffffffffffffffffffffffffffffffffffff168373ffffffffffffffffffffffffffffffffffffffff1603610da5576040517f08c379a0000000000000000000000000000000000000000000000000000000008152600401610d9c90611964565b60405180910390fd5b3373ffffffffffffffffffffffffffffffffffffffff168373ffffffffffffffffffffffffffffffffffffffff1614610e13576040517f08c379a0000000000000000000000000000000000000000000000000000000008152600401610e0a906119f2565b60405180910390fd5b8373ffffffffffffffffffffffffffffffffffffffff1660065f8381526020019081526020015f206001015f9054906101000a900473ffffffffffffffffffffffffffffffffffffffff1673ffffffffffffffffffffffffffffffffffffffff1614610eb4576040517f08c379a0000000000000000000000000000000000000000000000000000000008152600401610eab90611a5a565b60405180910390fd5b60015f9054906101000a900473ffffffffffffffffffffffffffffffffffffffff1673ffffffffffffffffffffffffffffffffffffffff166323b872dd3330610efc86610275565b6040518463ffffffff1660e01b8152600401610f1a93929190611d49565b6020604051808303815f875af1158015610f36573d5f803e3d5ffd5b505050506040513d601f19601f82011682018060405250810190610f5a9190611bc2565b50600160065f8381526020019081526020015f2060090160016101000a81548160ff021916908315150217905550808373ffffffffffffffffffffffffffffffffffffffff168573ffffffffffffffffffffffffffffffffffffffff167fe1fb5b5e62f99084a17ad1d9bea1e238e7634694073da91677db19b77aef43648542604051610fe8929190611ade565b60405180910390a450505050565b5f73ffffffffffffffffffffffffffffffffffffffff168573ffffffffffffffffffffffffffffffffffffffff1603611064576040517f08c379a000000000000000000000000000000000000000000000000000000000815260040161105b906118fc565b60405180910390fd5b5f73ffffffffffffffffffffffffffffffffffffffff168473ffffffffffffffffffffffffffffffffffffffff16036110d2576040517f08c379a00000000000000000000000000000000000000000000000000000000081526004016110c990611964565b60405180910390fd5b5f4290505f600354836110e59190611814565b426110f09190611aab565b90506040518061016001604052805f5481526020018873ffffffffffffffffffffffffffffffffffffffff1681526020018773ffffffffffffffffffffffffffffffffffffffff1681526020018681526020018581526020018381526020018281526020018481526020018381526020016001151581526020015f151581525060065f805481526020019081526020015f205f820151815f01556020820151816001015f6101000a81548173ffffffffffffffffffffffffffffffffffffffff021916908373ffffffffffffffffffffffffffffffffffffffff1602179055506040820151816002015f6101000a81548173ffffffffffffffffffffffffffffffffffffffff021916908373ffffffffffffffffffffffffffffffffffffffff160217905550606082015181600301556080820151816004015560a0820151816005015560c0820151816006015560e082015181600701556101008201518160080155610120820151816009015f6101000a81548160ff0219169083151502179055506101408201518160090160016101000a81548160ff0219169083151502179055509050505f548673ffffffffffffffffffffffffffffffffffffffff168873ffffffffffffffffffffffffffffffffffffffff167fbc7849ee8c55eb3a1e73a6f433f9c3734e1c8f648e35453b0059322e9ca09e9e8888878960015f60405161130196959493929190611d7e565b60405180910390a460015f8082825461131a9190611aab565b9250508190555050505050505050565b5f61133482610b77565b5f60055f8473ffffffffffffffffffffffffffffffffffffffff1673ffffffffffffffffffffffffffffffffffffffff1681526020019081526020015f2080549050905060055f8473ffffffffffffffffffffffffffffffffffffffff1673ffffffffffffffffffffffffffffffffffffffff1681526020019081526020015f206001826113c29190611a78565b815481106113d3576113d2611ddd565b5b905f5260205f200154915050919050565b60015f9054906101000a900473ffffffffffffffffffffffffffffffffffffffff1681565b5f80fd5b5f819050919050565b61141f8161140d565b8114611429575f80fd5b50565b5f8135905061143a81611416565b92915050565b5f6020828403121561145557611454611409565b5b5f6114628482850161142c565b91505092915050565b6114748161140d565b82525050565b5f60208201905061148d5f83018461146b565b92915050565b5f73ffffffffffffffffffffffffffffffffffffffff82169050919050565b5f6114bc82611493565b9050919050565b6114cc816114b2565b81146114d6575f80fd5b50565b5f813590506114e7816114c3565b92915050565b5f805f806080858703121561150557611504611409565b5b5f611512878288016114d9565b9450506020611523878288016114d9565b93505060406115348782880161142c565b92505060606115458782880161142c565b91505092959194509250565b5f6020828403121561156657611565611409565b5b5f611573848285016114d9565b91505092915050565b5f81519050919050565b5f82825260208201905092915050565b5f819050602082019050919050565b6115ae8161140d565b82525050565b5f6115bf83836115a5565b60208301905092915050565b5f602082019050919050565b5f6115e18261157c565b6115eb8185611586565b93506115f683611596565b805f5b8381101561162657815161160d88826115b4565b9750611618836115cb565b9250506001810190506115f9565b5085935050505092915050565b5f6020820190508181035f83015261164b81846115d7565b905092915050565b5f819050919050565b61166581611653565b82525050565b5f60208201905061167e5f83018461165c565b92915050565b5f805f805f60a0868803121561169d5761169c611409565b5b5f6116aa888289016114d9565b95505060206116bb888289016114d9565b94505060406116cc8882890161142c565b93505060606116dd8882890161142c565b92505060806116ee8882890161142c565b9150509295509295909350565b5f819050919050565b5f61171e61171961171484611493565b6116fb565b611493565b9050919050565b5f61172f82611704565b9050919050565b5f61174082611725565b9050919050565b61175081611736565b82525050565b5f6020820190506117695f830184611747565b92915050565b5f82825260208201905092915050565b7f496e76616c6964207072696365206461746100000000000000000000000000005f82015250565b5f6117b360128361176f565b91506117be8261177f565b602082019050919050565b5f6020820190508181035f8301526117e0816117a7565b9050919050565b7f4e487b71000000000000000000000000000000000000000000000000000000005f52601160045260245ffd5b5f61181e8261140d565b91506118298361140d565b92508282026118378161140d565b9150828204841483151761184e5761184d6117e7565b5b5092915050565b7f4e487b71000000000000000000000000000000000000000000000000000000005f52601260045260245ffd5b5f61188c8261140d565b91506118978361140d565b9250826118a7576118a6611855565b5b828204905092915050565b7f6f776e657241646472657373206d757374206265206e6f6e2d7a65726f0000005f82015250565b5f6118e6601d8361176f565b91506118f1826118b2565b602082019050919050565b5f6020820190508181035f830152611913816118da565b9050919050565b7f74656e616e7441646472657373206d757374206265206e6f6e2d7a65726f00005f82015250565b5f61194e601e8361176f565b91506119598261191a565b602082019050919050565b5f6020820190508181035f83015261197b81611942565b9050919050565b7f53656375726974792073686f756c64206265206465706f7369746564206279205f8201527f74656e616e74206f6e6c79000000000000000000000000000000000000000000602082015250565b5f6119dc602b8361176f565b91506119e782611982565b604082019050919050565b5f6020820190508181035f830152611a09816119d0565b9050919050565b7f506179696e6720746f2077726f6e67206f776e657200000000000000000000005f82015250565b5f611a4460158361176f565b9150611a4f82611a10565b602082019050919050565b5f6020820190508181035f830152611a7181611a38565b9050919050565b5f611a828261140d565b9150611a8d8361140d565b9250828203905081811115611aa557611aa46117e7565b5b92915050565b5f611ab58261140d565b9150611ac08361140d565b9250828201905080821115611ad857611ad76117e7565b5b92915050565b5f604082019050611af15f83018561146b565b611afe602083018461146b565b9392505050565b611b0e816114b2565b82525050565b5f8115159050919050565b611b2881611b14565b82525050565b5f608082019050611b415f830187611b05565b611b4e6020830186611b05565b611b5b604083018561146b565b611b686060830184611b1f565b95945050505050565b5f604082019050611b845f830185611b05565b611b91602083018461146b565b9392505050565b611ba181611b14565b8114611bab575f80fd5b50565b5f81519050611bbc81611b98565b92915050565b5f60208284031215611bd757611bd6611409565b5b5f611be484828501611bae565b91505092915050565b7f5468652061677265656d656e7420616c72656164792070726f636573736564005f82015250565b5f611c21601f8361176f565b9150611c2c82611bed565b602082019050919050565b5f6020820190508181035f830152611c4e81611c15565b9050919050565b5f69ffffffffffffffffffff82169050919050565b611c7381611c55565b8114611c7d575f80fd5b50565b5f81519050611c8e81611c6a565b92915050565b611c9d81611653565b8114611ca7575f80fd5b50565b5f81519050611cb881611c94565b92915050565b5f81519050611ccc81611416565b92915050565b5f805f805f60a08688031215611ceb57611cea611409565b5b5f611cf888828901611c80565b9550506020611d0988828901611caa565b9450506040611d1a88828901611cbe565b9350506060611d2b88828901611cbe565b9250506080611d3c88828901611c80565b9150509295509295909350565b5f606082019050611d5c5f830186611b05565b611d696020830185611b05565b611d76604083018461146b565b949350505050565b5f60c082019050611d915f83018961146b565b611d9e602083018861146b565b611dab604083018761146b565b611db8606083018661146b565b611dc56080830185611b1f565b611dd260a0830184611b1f565b979650505050505050565b7f4e487b71000000000000000000000000000000000000000000000000000000005f52603260045260245ffdfea26469706673582212207e66854269857198e593f36d0a1da89d333c563cfc6cfc81106b532268c6476964736f6c63430008140033",
  "linkReferences": {},
  "deployedLinkReferences": {}
}