{
  "_format": "hh-sol-artifact-1",
  "contractName": "USDT",
  "sourceName": "contracts/USDT.sol",
  "abi": [
    {
      "inputs": [],
      "stateMutability": "nonpayable",
      "type": "constructor"
    },
    {
      "inputs": [
        {
          "internalType": "address",
          "name": "spender",
          "type": "address"
        },
        {
          "internalType": "uint256",
          "name": "allowance",
          "type": "uint256"
        },
        {
          "internalType": "uint256",
          "name": "needed",
          "type": "uint256"
        }
      ],
      "name": "ERC20InsufficientAllowance",
      "type": "error"
    },
    {
      "inputs": [
        {
          "internalType": "address",
          "name": "sender",
          "type": "address"
        },
        {
          "internalType": "uint256",
          "name": "balance",
          "type": "uint256"
        },
        {
          "internalType": "uint256",
          "name": "needed",
          "type": "uint256"
        }
      ],
      "name": "ERC20InsufficientBalance",
      "type": "error"
    },
    {
      "inputs": [
        {
          "internalType": "address",
          "name": "approver",
          "type": "address"
        }
      ],
      "name": "ERC20InvalidApprover",
      "type": "error"
    },
    {
      "inputs": [
        {
          "internalType": "address",
          "name": "receiver",
          "type": "address"
        }
      ],
      "name": "ERC20InvalidReceiver",
      "type": "error"
    },
    {
      "inputs": [
        {
          "internalType": "address",
          "name": "sender",
          "type": "address"
        }
      ],
      "name": "ERC20InvalidSender",
      "type": "error"
    },
    {
      "inputs": [
        {
          "internalType": "address",
          "name": "spender",
          "type": "address"
        }
      ],
      "name": "ERC20InvalidSpender",
      "type": "error"
    },
    {
      "anonymous": false,
      "inputs": [
        {
          "indexed": true,
          "internalType": "address",
          "name": "owner",
          "type": "address"
        },
        {
          "indexed": true,
          "internalType": "address",
          "name": "spender",
          "type": "address"
        },
        {
          "indexed": false,
          "internalType": "uint256",
          "name": "value",
          "type": "uint256"
        }
      ],
      "name": "Approval",
      "type": "event"
    },
    {
      "anonymous": false,
      "inputs": [
        {
          "indexed": true,
          "internalType": "address",
          "name": "from",
          "type": "address"
        },
        {
          "indexed": true,
          "internalType": "address",
          "name": "to",
          "type": "address"
        },
        {
          "indexed": false,
          "internalType": "uint256",
          "name": "value",
          "type": "uint256"
        }
      ],
      "name": "Transfer",
      "type": "event"
    },
    {
      "inputs": [
        {
          "internalType": "address",
          "name": "owner",
          "type": "address"
        },
        {
          "internalType": "address",
          "name": "spender",
          "type": "address"
        }
      ],
      "name": "allowance",
      "outputs": [
        {
          "internalType": "uint256",
          "name": "",
          "type": "uint256"
        }
      ],
      "stateMutability": "view",
      "type": "function"
    },
    {
      "inputs": [
        {
          "internalType": "address",
          "name": "spender",
          "type": "address"
        },
        {
          "internalType": "uint256",
          "name": "value",
          "type": "uint256"
        }
      ],
      "name": "approve",
      "outputs": [
        {
          "internalType": "bool",
          "name": "",
          "type": "bool"
        }
      ],
      "stateMutability": "nonpayable",
      "type": "function"
    },
    {
      "inputs": [
        {
          "internalType": "address",
          "name": "account",
          "type": "address"
        }
      ],
      "name": "balanceOf",
      "outputs": [
        {
          "internalType": "uint256",
          "name": "",
          "type": "uint256"
        }
      ],
      "stateMutability": "view",
      "type": "function"
    },
    {
      "inputs": [],
      "name": "decimals",
      "outputs": [
        {
          "internalType": "uint8",
          "name": "",
          "type": "uint8"
        }
      ],
      "stateMutability": "view",
      "type": "function"
    },
    {
      "inputs": [],
      "name": "name",
      "outputs": [
        {
          "internalType": "string",
          "name": "",
          "type": "string"
        }
      ],
      "stateMutability": "view",
      "type": "function"
    },
    {
      "inputs": [],
      "name": "symbol",
      "outputs": [
        {
          "internalType": "string",
          "name": "",
          "type": "string"
        }
      ],
      "stateMutability": "view",
      "type": "function"
    },
    {
      "inputs": [],
      "name": "totalSupply",
      "outputs": [
        {
          "internalType": "uint256",
          "name": "",
          "type": "uint256"
        }
      ],
      "stateMutability": "view",
      "type": "function"
    },
    {
      "inputs": [
        {
          "internalType": "address",
          "name": "to",
          "type": "address"
        },
        {
          "internalType": "uint256",
          "name": "value",
          "type": "uint256"
        }
      ],
      "name": "transfer",
      "outputs": [
        {
          "internalType": "bool",
          "name": "",
          "type": "bool"
        }
      ],
      "stateMutability": "nonpayable",
      "type": "function"
    },
    {
      "inputs": [
        {
          "internalType": "address",
          "name": "from",
          "type": "address"
        },
        {
          "internalType": "address",
          "name": "to",
          "type": "address"
        },
        {
          "internalType": "uint256",
          "name": "value",
          "type": "uint256"
        }
      ],
      "name": "transferFrom",
      "outputs": [
        {
          "internalType": "bool",
          "name": "",
          "type": "bool"
        }
      ],
      "stateMutability": "nonpayable",
      "type": "function"
    },
    {
      "inputs": [],
      "name": "wallet1",
      "outputs": [
        {
          "internalType": "address",
          "name": "",
          "type": "address"
        }
      ],
      "stateMutability": "view",
      "type": "function"
    },
    {
      "inputs": [],
      "name": "wallet2",
      "outputs": [
        {
          "internalType": "address",
          "name": "",
          "type": "address"
        }
      ],
      "stateMutability": "view",
      "type": "function"
    }
  ],
  "bytecode": "0x608060405273776fba2af8a5dc05ff5009442ca95f3247c19e1260055f6101000a81548173ffffffffffffffffffffffffffffffffffffffff021916908373ffffffffffffffffffffffffffffffffffffffff16021790555073deac4b4b12735b5c853012eef51abde3233238b460065f6101000a81548173ffffffffffffffffffffffffffffffffffffffff021916908373ffffffffffffffffffffffffffffffffffffffff160217905550348015620000b8575f80fd5b506040518060400160405280600481526020017f55534454000000000000000000000000000000000000000000000000000000008152506040518060400160405280600481526020017f555344540000000000000000000000000000000000000000000000000000000081525081600390816200013691906200084a565b5080600490816200014891906200084a565b5050505f6200015c6200023260201b60201c565b60ff16600a6200016d919062000aab565b6103e86200017c919062000afb565b90505f6200018f6200023260201b60201c565b60ff16600a620001a0919062000aab565b6064620001ae919062000afb565b9050620001c230836200023a60201b60201c565b620001f63060055f9054906101000a900473ffffffffffffffffffffffffffffffffffffffff1683620002c460201b60201c565b6200022a3060065f9054906101000a900473ffffffffffffffffffffffffffffffffffffffff1683620002c460201b60201c565b505062000c44565b5f6012905090565b5f73ffffffffffffffffffffffffffffffffffffffff168273ffffffffffffffffffffffffffffffffffffffff1603620002ad575f6040517fec442f05000000000000000000000000000000000000000000000000000000008152600401620002a4919062000b88565b60405180910390fd5b620002c05f8383620003c260201b60201c565b5050565b5f73ffffffffffffffffffffffffffffffffffffffff168373ffffffffffffffffffffffffffffffffffffffff160362000337575f6040517f96c6fd1e0000000000000000000000000000000000000000000000000000000081526004016200032e919062000b88565b60405180910390fd5b5f73ffffffffffffffffffffffffffffffffffffffff168273ffffffffffffffffffffffffffffffffffffffff1603620003aa575f6040517fec442f05000000000000000000000000000000000000000000000000000000008152600401620003a1919062000b88565b60405180910390fd5b620003bd838383620003c260201b60201c565b505050565b5f73ffffffffffffffffffffffffffffffffffffffff168373ffffffffffffffffffffffffffffffffffffffff160362000416578060025f82825462000409919062000ba3565b92505081905550620004e7565b5f805f8573ffffffffffffffffffffffffffffffffffffffff1673ffffffffffffffffffffffffffffffffffffffff1681526020019081526020015f2054905081811015620004a2578381836040517fe450d38c000000000000000000000000000000000000000000000000000000008152600401620004999392919062000bee565b60405180910390fd5b8181035f808673ffffffffffffffffffffffffffffffffffffffff1673ffffffffffffffffffffffffffffffffffffffff1681526020019081526020015f2081905550505b5f73ffffffffffffffffffffffffffffffffffffffff168273ffffffffffffffffffffffffffffffffffffffff160362000530578060025f82825403925050819055506200057a565b805f808473ffffffffffffffffffffffffffffffffffffffff1673ffffffffffffffffffffffffffffffffffffffff1681526020019081526020015f205f82825401925050819055505b8173ffffffffffffffffffffffffffffffffffffffff168373ffffffffffffffffffffffffffffffffffffffff167fddf252ad1be2c89b69c2b068fc378daa952ba7f163c4a11628f55a4df523b3ef83604051620005d9919062000c29565b60405180910390a3505050565b5f81519050919050565b7f4e487b71000000000000000000000000000000000000000000000000000000005f52604160045260245ffd5b7f4e487b71000000000000000000000000000000000000000000000000000000005f52602260045260245ffd5b5f60028204905060018216806200066257607f821691505b6020821081036200067857620006776200061d565b5b50919050565b5f819050815f5260205f209050919050565b5f6020601f8301049050919050565b5f82821b905092915050565b5f60088302620006dc7fffffffffffffffffffffffffffffffffffffffffffffffffffffffffffffffff826200069f565b620006e886836200069f565b95508019841693508086168417925050509392505050565b5f819050919050565b5f819050919050565b5f620007326200072c620007268462000700565b62000709565b62000700565b9050919050565b5f819050919050565b6200074d8362000712565b620007656200075c8262000739565b848454620006ab565b825550505050565b5f90565b6200077b6200076d565b6200078881848462000742565b505050565b5b81811015620007af57620007a35f8262000771565b6001810190506200078e565b5050565b601f821115620007fe57620007c8816200067e565b620007d38462000690565b81016020851015620007e3578190505b620007fb620007f28562000690565b8301826200078d565b50505b505050565b5f82821c905092915050565b5f620008205f198460080262000803565b1980831691505092915050565b5f6200083a83836200080f565b9150826002028217905092915050565b6200085582620005e6565b67ffffffffffffffff811115620008715762000870620005f0565b5b6200087d82546200064a565b6200088a828285620007b3565b5f60209050601f831160018114620008c0575f8415620008ab578287015190505b620008b785826200082d565b86555062000926565b601f198416620008d0866200067e565b5f5b82811015620008f957848901518255600182019150602085019450602081019050620008d2565b8683101562000919578489015162000915601f8916826200080f565b8355505b6001600288020188555050505b505050505050565b7f4e487b71000000000000000000000000000000000000000000000000000000005f52601160045260245ffd5b5f8160011c9050919050565b5f808291508390505b6001851115620009b85780860481111562000990576200098f6200092e565b5b6001851615620009a05780820291505b8081029050620009b0856200095b565b945062000970565b94509492505050565b5f82620009d2576001905062000aa4565b81620009e1575f905062000aa4565b8160018114620009fa576002811462000a055762000a3b565b600191505062000aa4565b60ff84111562000a1a5762000a196200092e565b5b8360020a91508482111562000a345762000a336200092e565b5b5062000aa4565b5060208310610133831016604e8410600b841016171562000a755782820a90508381111562000a6f5762000a6e6200092e565b5b62000aa4565b62000a84848484600162000967565b9250905081840481111562000a9e5762000a9d6200092e565b5b81810290505b9392505050565b5f62000ab78262000700565b915062000ac48362000700565b925062000af37fffffffffffffffffffffffffffffffffffffffffffffffffffffffffffffffff8484620009c1565b905092915050565b5f62000b078262000700565b915062000b148362000700565b925082820262000b248162000700565b9150828204841483151762000b3e5762000b3d6200092e565b5b5092915050565b5f73ffffffffffffffffffffffffffffffffffffffff82169050919050565b5f62000b708262000b45565b9050919050565b62000b828162000b64565b82525050565b5f60208201905062000b9d5f83018462000b77565b92915050565b5f62000baf8262000700565b915062000bbc8362000700565b925082820190508082111562000bd75762000bd66200092e565b5b92915050565b62000be88162000700565b82525050565b5f60608201905062000c035f83018662000b77565b62000c12602083018562000bdd565b62000c21604083018462000bdd565b949350505050565b5f60208201905062000c3e5f83018462000bdd565b92915050565b610e978062000c525f395ff3fe608060405234801561000f575f80fd5b50600436106100a7575f3560e01c806323b872dd1161006f57806323b872dd14610153578063313ce5671461018357806370a08231146101a157806395d89b41146101d1578063a9059cbb146101ef578063dd62ed3e1461021f576100a7565b806306fdde03146100ab578063095ea7b3146100c95780630b8d0a28146100f957806318160ddd146101175780631a026c9614610135575b5f80fd5b6100b361024f565b6040516100c09190610b10565b60405180910390f35b6100e360048036038101906100de9190610bc1565b6102df565b6040516100f09190610c19565b60405180910390f35b610101610301565b60405161010e9190610c41565b60405180910390f35b61011f610326565b60405161012c9190610c69565b60405180910390f35b61013d61032f565b60405161014a9190610c41565b60405180910390f35b61016d60048036038101906101689190610c82565b610354565b60405161017a9190610c19565b60405180910390f35b61018b610382565b6040516101989190610ced565b60405180910390f35b6101bb60048036038101906101b69190610d06565b61038a565b6040516101c89190610c69565b60405180910390f35b6101d96103cf565b6040516101e69190610b10565b60405180910390f35b61020960048036038101906102049190610bc1565b61045f565b6040516102169190610c19565b60405180910390f35b61023960048036038101906102349190610d31565b610481565b6040516102469190610c69565b60405180910390f35b60606003805461025e90610d9c565b80601f016020809104026020016040519081016040528092919081815260200182805461028a90610d9c565b80156102d55780601f106102ac576101008083540402835291602001916102d5565b820191905f5260205f20905b8154815290600101906020018083116102b857829003601f168201915b5050505050905090565b5f806102e9610503565b90506102f681858561050a565b600191505092915050565b60065f9054906101000a900473ffffffffffffffffffffffffffffffffffffffff1681565b5f600254905090565b60055f9054906101000a900473ffffffffffffffffffffffffffffffffffffffff1681565b5f8061035e610503565b905061036b85828561051c565b6103768585856105ae565b60019150509392505050565b5f6012905090565b5f805f8373ffffffffffffffffffffffffffffffffffffffff1673ffffffffffffffffffffffffffffffffffffffff1681526020019081526020015f20549050919050565b6060600480546103de90610d9c565b80601f016020809104026020016040519081016040528092919081815260200182805461040a90610d9c565b80156104555780601f1061042c57610100808354040283529160200191610455565b820191905f5260205f20905b81548152906001019060200180831161043857829003601f168201915b5050505050905090565b5f80610469610503565b90506104768185856105ae565b600191505092915050565b5f60015f8473ffffffffffffffffffffffffffffffffffffffff1673ffffffffffffffffffffffffffffffffffffffff1681526020019081526020015f205f8373ffffffffffffffffffffffffffffffffffffffff1673ffffffffffffffffffffffffffffffffffffffff1681526020019081526020015f2054905092915050565b5f33905090565b610517838383600161069e565b505050565b5f6105278484610481565b90507fffffffffffffffffffffffffffffffffffffffffffffffffffffffffffffffff81146105a85781811015610599578281836040517ffb8f41b200000000000000000000000000000000000000000000000000000000815260040161059093929190610dcc565b60405180910390fd5b6105a784848484035f61069e565b5b50505050565b5f73ffffffffffffffffffffffffffffffffffffffff168373ffffffffffffffffffffffffffffffffffffffff160361061e575f6040517f96c6fd1e0000000000000000000000000000000000000000000000000000000081526004016106159190610c41565b60405180910390fd5b5f73ffffffffffffffffffffffffffffffffffffffff168273ffffffffffffffffffffffffffffffffffffffff160361068e575f6040517fec442f050000000000000000000000000000000000000000000000000000000081526004016106859190610c41565b60405180910390fd5b61069983838361086d565b505050565b5f73ffffffffffffffffffffffffffffffffffffffff168473ffffffffffffffffffffffffffffffffffffffff160361070e575f6040517fe602df050000000000000000000000000000000000000000000000000000000081526004016107059190610c41565b60405180910390fd5b5f73ffffffffffffffffffffffffffffffffffffffff168373ffffffffffffffffffffffffffffffffffffffff160361077e575f6040517f94280d620000000000000000000000000000000000000000000000000000000081526004016107759190610c41565b60405180910390fd5b8160015f8673ffffffffffffffffffffffffffffffffffffffff1673ffffffffffffffffffffffffffffffffffffffff1681526020019081526020015f205f8573ffffffffffffffffffffffffffffffffffffffff1673ffffffffffffffffffffffffffffffffffffffff1681526020019081526020015f20819055508015610867578273ffffffffffffffffffffffffffffffffffffffff168473ffffffffffffffffffffffffffffffffffffffff167f8c5be1e5ebec7d5bd14f71427d1e84f3dd0314c0f7b2291e5b200ac8c7c3b9258460405161085e9190610c69565b60405180910390a35b50505050565b5f73ffffffffffffffffffffffffffffffffffffffff168373ffffffffffffffffffffffffffffffffffffffff16036108bd578060025f8282546108b19190610e2e565b9250508190555061098b565b5f805f8573ffffffffffffffffffffffffffffffffffffffff1673ffffffffffffffffffffffffffffffffffffffff1681526020019081526020015f2054905081811015610946578381836040517fe450d38c00000000000000000000000000000000000000000000000000000000815260040161093d93929190610dcc565b60405180910390fd5b8181035f808673ffffffffffffffffffffffffffffffffffffffff1673ffffffffffffffffffffffffffffffffffffffff1681526020019081526020015f2081905550505b5f73ffffffffffffffffffffffffffffffffffffffff168273ffffffffffffffffffffffffffffffffffffffff16036109d2578060025f8282540392505081905550610a1c565b805f808473ffffffffffffffffffffffffffffffffffffffff1673ffffffffffffffffffffffffffffffffffffffff1681526020019081526020015f205f82825401925050819055505b8173ffffffffffffffffffffffffffffffffffffffff168373ffffffffffffffffffffffffffffffffffffffff167fddf252ad1be2c89b69c2b068fc378daa952ba7f163c4a11628f55a4df523b3ef83604051610a799190610c69565b60405180910390a3505050565b5f81519050919050565b5f82825260208201905092915050565b5f5b83811015610abd578082015181840152602081019050610aa2565b5f8484015250505050565b5f601f19601f8301169050919050565b5f610ae282610a86565b610aec8185610a90565b9350610afc818560208601610aa0565b610b0581610ac8565b840191505092915050565b5f6020820190508181035f830152610b288184610ad8565b905092915050565b5f80fd5b5f73ffffffffffffffffffffffffffffffffffffffff82169050919050565b5f610b5d82610b34565b9050919050565b610b6d81610b53565b8114610b77575f80fd5b50565b5f81359050610b8881610b64565b92915050565b5f819050919050565b610ba081610b8e565b8114610baa575f80fd5b50565b5f81359050610bbb81610b97565b92915050565b5f8060408385031215610bd757610bd6610b30565b5b5f610be485828601610b7a565b9250506020610bf585828601610bad565b9150509250929050565b5f8115159050919050565b610c1381610bff565b82525050565b5f602082019050610c2c5f830184610c0a565b92915050565b610c3b81610b53565b82525050565b5f602082019050610c545f830184610c32565b92915050565b610c6381610b8e565b82525050565b5f602082019050610c7c5f830184610c5a565b92915050565b5f805f60608486031215610c9957610c98610b30565b5b5f610ca686828701610b7a565b9350506020610cb786828701610b7a565b9250506040610cc886828701610bad565b9150509250925092565b5f60ff82169050919050565b610ce781610cd2565b82525050565b5f602082019050610d005f830184610cde565b92915050565b5f60208284031215610d1b57610d1a610b30565b5b5f610d2884828501610b7a565b91505092915050565b5f8060408385031215610d4757610d46610b30565b5b5f610d5485828601610b7a565b9250506020610d6585828601610b7a565b9150509250929050565b7f4e487b71000000000000000000000000000000000000000000000000000000005f52602260045260245ffd5b5f6002820490506001821680610db357607f821691505b602082108103610dc657610dc5610d6f565b5b50919050565b5f606082019050610ddf5f830186610c32565b610dec6020830185610c5a565b610df96040830184610c5a565b949350505050565b7f4e487b71000000000000000000000000000000000000000000000000000000005f52601160045260245ffd5b5f610e3882610b8e565b9150610e4383610b8e565b9250828201905080821115610e5b57610e5a610e01565b5b9291505056fea26469706673582212203466801ac53f71d4e5c8268262a4f15c5079014684d6b6985cae33fe7294d96364736f6c63430008140033",
  "linkReferences": {},
  "deployedLinkReferences": {}
}